RBR XR-420-CTDTu  4.60 010364 (Windows: 6.13)
Host time     11/05/12 09:40:07
Logger time   00/01/01 00:01:03
Logging start 11/03/10 10:26:30
Logging end   11/05/05 14:00:47
Sample period          00:01:00
Number of channels =  4, number of samples =  56115, mode: Logging Complete
N04%9.4f
Calibration  1: 0.019000000000000
                115.816999999999990
                0.000000000000000
                0.000000000000000 mS/cm
Calibration  2: 0.003393357512372
                -0.000253374267740
                0.000002085728346
                -0.000000065315866 Degrees_C
Calibration  3: -0.433104483498000
                649.886311963025950
                44.500312786084002
                21.978793100453998 deciBars
Calibration  4: 0.000000000000000
                5.000000000000000
                0.000000000000000
                0.000000000000000 NTU
Correction to conductivity: 0.0000000e+000 0.0000000e+000 0.0000000e+000 0.0000000e+000
COMMENT: pescadero - downstream - march 10 to about May 5 (retrieved may 11).  third from bottom probably
Memory type: 2 AMD 29LV033C
Averaging: 3 seconds
Logger start:Now 
Reset stamp 2000/01/01 00:00:00 at sample 56116 of type: WARM STARTUP
Reset stamp 2000/01/01 00:01:03 at sample 56116 of type: STOP STAMP
Number of bytes in header 30
Extended data range: 01E3E3E3E3E3E3E3E3E3E3E3E3E3E3E3E3E3E3E3E3E3E3E3E3E3

     Cond      Temp      Pres      Turb 
Number of bytes of data 673443
|     |     |     |     |     |     |     |
110310102630110505140047000100010000000000000012
000000000091FFF15794C86EFFFFFFAB706BFFF234935837
FFFFFF1C4EA3FFF0DF938A98FFFFFF1C51AEFFEDE4951275
FFFFFF1C29A1FFED2293E715FFFFFF1C35F2FFECA59409BB
FFFFFF1C25F4FFEC1A92C6FCFFFFFF1C2190FFEC8D932C44
FFFFFF1C2F21FFEE4D94389FC99E261C9B95FFEEA3938C6D
FFFFFF1C1F88FFEBEA93DDDDFFFFFF1C362AFFEC9593400F
FFFFFF1C323FFFEDBF934BDFFFFFFF1C281DFFEC579336E7
35B6741C7B9DFFEFB392EF131A01241C7E1BFFECB89297DD
FC9A171C9693FFEE4E9259E4DDF7961CABB0FFEE4D91FC6F
1C701F1CBDF9FFEEE6923BAB9760361D28B5FFEDC5918FA5
4B346E1D3D87FFEE8290FA075FF95B1D48FEFFEEE1906771
96CA791D4DABFFED608FBBF376DAC41D7FA9FFEFB78F9508
9B9F3B1DA7AFFFEF3F8E65B2B18B561DB87CFFF08D8DFD1E
B87E411DD5F7FFEFDB8D7305B87F9E1DDF25FFEEFE8D452E
B87D9D1DE52BFFF0DD8DC933B87BCB1DF4F8FFF19F8CC930
B87ABF1DE628FFF0758D2C79B879381DDA9CFFF0658CF3A2
B8781F1DCA63FFF00D8CB4E5B876861DC06AFFF0598C12BD
B8743C1DD4C6FFEF348B7F9EB872F61DDDBEFFF0AF8C4BF0
B871831DE1AEFFF0808D1127B870561DD14FFFF0C28CD752
B86F6D1DBEFFFFF0098C18B3B86E6B1DA7DBFFF0B78CDDED
B86D641D9859FFF0D38C65E0B86D191D82DBFFF1768CCB23
B86C421D6F2AFFF0188CD537B86BA61D4B55FFF0CE8D8709
B86B4E1D3C1EFFEF618CFCCDB86BB41D2506FFF0A48D9A5B
B86BAF1D2939FFF00E8D904BB86BD21D05F3FFEF9C8E8422
B86BF91CF1E1FFEE0B92FA21B86CDD1D115CFFEF64950737
B86CD11D02F400F68D9E5301FFFFFF940BE200F4FA9E42F7
FFFFFF20000000F8449E4EB4FFFFFF20000000F80F9E47DB
FFFFFF20000000F8019E4506FFFFFF20000000F8C29E4777
FFFFFF20000000F7069E3937FFFFFF20000000F6199E3DF0
FFFFFF20000000FB049E5585FFFFFF20000000FC0E9E58E0
FFFFFF20000000F9499E4A36FFFFFF20000000F7C09E598C
FFFFFF20000000F6299E5696FFFFFF20000000F4279E3870
FFFFFF20000000FC589E53FCFFFFFF20000000F9BC9E76E6
FFFFFF20000000FA1F9E7433FFFFFF20000000F7ED9E6ED5
FFFFFF20000000F4389E5714FFFFFF20000000FF7E9E725B
FFFFFF20000000FAD99E72B1FFFFFF20000000F71D9E4EC3
FFFFFF20000000F3D09E4902FFFFFF20000000FED69E8362
FFFFFF20000000F7DF9E5930FFFFFF20000000F98F9E5B48
FFFFFF20000000F6C69E6A5BFFFFFF20000000F62A9E6125
FFFFFF20000000FABD9E83F1FFFFFF20000000F8839E7C89
FFFFFF20000000F5939E6135FFFFFF20000000F4239E72EF
FFFFFF20000000F3B59E609FFFFFFF20000000F3929E56B1
FFFFFF20000000F5229E6B0EFFFFFF20000000FA4D9E6D0B
FFFFFF20000000F6A59E6182FFFFFF20000000F4FE9E4AFE
FFFFFF20000000F0F09E3B52FFFFFF20000000F22E9E49F9
FFFFFF20000000F3B29E50C2FFFFFF20000000F1A89E4C11
FFFFFF20000000F1A29E50BDFFFFFF20000000F4189E5B85
FFFFFF20000000FC649E7037FFFFFF20000000F4339E6DB5
FFFFFF20000000F7039E51EFFFFFFF20000000F42F9E4AAC
FFFFFF20000000F8589E5FB4FFFFFF20000000F90A9E534B
FFFFFF20000000F6B39E49B1FFFFFF20000000F45E9E3B5B
FFFFFF20000000F28A9E3ED2FFFFFF20000000FC639E5B45
FFFFFF20000000FC879E569BFFFFFF20000000F3F39E5164
FFFFFF20000000EFC59E4CB4FFFFFF20000000F3309E4482
FFFFFF20000000F1CD9E3324FFFFFF20000000F29A9E3B2B
FFFFFF20000000F4E99E388CFFFFFF2000000100A09E49E7
FFFFFF20000000F34A9E560BFFFFFF20000000F1B49E3385
FFFFFF20000000F2AE9E20DCFFFFFF20000000F1759E131E
FFFFFF20000000F8209E2244FFFFFF20000000F1269E16DA
FFFFFF20000000F6BA9E37DEFFFFFF20000000F7AC9E369B
FFFFFF20000000F5A39E3000FFFFFF20000000EF6F9E22E6
FFFFFF20000000EEA89E15E2FFFFFF20000000F1CE9E2006
FFFFFF20000000F1BD9E0F33FFFFFF20000000F3B29E0FE4
FFFFFF20000000F1EA9E1B76FFFFFF20000000F7859E131A
FFFFFF20000000F16B9E106BFFFFFF20000000F5819E1678
FFFFFF20000000ECAB9E0780FFFFFF20000000EDC09DF963
FFFFFF20000000EEE69DEEC0FFFFFF20000000ED899DF26A
FFFFFF20000000EFB69DF0CAFFFFFF20000000F04C9DF391
FFFFFF20000000EAF59DF23DFFFFFF20000000EEA49DEC8C
FFFFFF20000000EFE19DE848FFFFFF20000000EDB89DF8B1
FFFFFF20000000EDAF9DD8AAFFFFFF20000000EF069DDB7F
FFFFFF20000000EC0C9DD061FFFFFF20000000ECA79DE8D1
FFFFFF20000000EBAE9DD7D5FFFFFF20000000EB6B9DC934
FFFFFF20000000F0BA9DC1CBFFFFFF20000000EFF69DBC1B
FFFFFF20000000ED909DC140FFFFFF20000000F04C9DCB7D
FFFFFF20000000EA7A9DBF37FFFFFF20000000EF4E9DC1FF
FFFFFF20000000EEA99DCA44FFFFFF20000000ED429DC3E2
FFFFFF20000000EAA99DC1C5FFFFFF20000000EBB19DBC1F
FFFFFF20000000EA8B9DB626FFFFFF20000000EB6C9DB36B
FFFFFF20000000E9599DB03EFFFFFF20000000E8D79DC4D5
FFFFFF20000000E8859DB005FFFFFF20000000E8FA9DC259
FFFFFF20000000EA899DB633FFFFFF20000000E5EF9DAFDA
FFFFFF20000000E9999DB023FFFFFF20000000E7909DAEFC
FFFFFF20000000EC609DC675FFFFFF20000000EA0A9DC1CB
FFFFFF20000000E6DF9DB941FFFFFF20000000E9699DBA8B
FFFFFF20000000EFBB9DA290FFFFFF20000000ED1E9D9905
FFFFFF20000000EB829D9A6BFFFFFF20000000EA349DAEC0
FFFFFF20000000E9419DB5CCFFFFFF20000000EFD69DC0A5
FFFFFF20000000E75F9DBA1FFFFFFF20000000E7669DB553
FFFFFF20000000E5EE9DA5DAFFFFFF20000000E1BF9DAE74
FFFFFF20000000E86E9DA0EBFFFFFF20000000E98A9DA004
FFFFFF20000000E73D9D9859FFFFFF20000000E5959DA3F4
FFFFFF20000000E8D89D8BF9FFFFFF20000000E6919D9500
FFFFFF20000000EA969D95D6FFFFFF20000000E7169D9672
FFFFFF20000000EC8C9D9552FFFFFF20000000EBD49D9136
FFFFFF20000000E9EB9D890FFFFFFF20000000EDE49D8020
FFFFFF20000000E4229D9167FFFFFF20000000E8AC9D8F63
FFFFFF20000000E88E9D92CBFFFFFF20000000EA459D81BE
FFFFFF20000000E7109D7F01FFFFFF20000000E5239D7FCF
FFFFFF20000000E45B9D750FFFFFFF20000000EA9F9D6AA9
FFFFFF20000000EBB49D6227FFFFFF20000000E7609D6604
FFFFFF20000000EC429D6620FFFFFF20000000E9359D684B
FFFFFF20000000EA099D5CA3FFFFFF20000000E91A9D5E13
FFFFFF20000000E8329D6970FFFFFF20000000EBA49D5EEA
FFFFFF20000000E6559D5235FFFFFF20000000E0939D7190
FFFFFF20000000E7509D651FFFFFFF20000000E5669D5EC5
FFFFFF20000000EF399D5A32FFFFFF20000000E6A49D50C7
FFFFFF20000000E0719D5B52FFFFFF20000000EFE19D50F3
FFFFFF20000000E8C49D46CCFFFFFF20000000E7519D48DA
FFFFFF20000000E9829D4236FFFFFF20000000E4EF9D396F
FFFFFF20000000E6A19D40A6FFFFFF20000000E5B19D2C64
FFFFFF20000000E7F99D2131FFFFFF20000000E6CC9D1EDF
FFFFFF20000000E77B9D2776FFFFFF20000000E8549D2EE4
FFFFFF20000000E1E79D310CFFFFFF20000000E4119D3692
FFFFFF20000000E2789D15B5FFFFFF20000000E2579D27A3
FFFFFF20000000E2BD9D3F12FFFFFF20000000E3419D2F68
FFFFFF20000000E0029D2A20FFFFFF20000000E2BB9D3113
FFFFFF20000000E6219D2936FFFFFF20000000E3EB9D23FE
FFFFFF20000000E5B79D05F6FFFFFF20000000E5D99D121A
FFFFFF20000000E6469D14A7FFFFFF20000000DEE79D197E
FFFFFF20000000E3239D0F5DFFFFFF20000000E33F9D0FBE
FFFFFF20000000E0979CFF4FFFFFFF20000000E5EE9CF84A
FFFFFF20000000E5249CEFA1FFFFFF20000000EB159CEFBE
FFFFFF20000000E7C59CE122FFFFFF20000000E1A29CE1CB
FFFFFF20000000E55B9CF28CFFFFFF20000000E7C89CE19C
FFFFFF20000000E9799CE932FFFFFF20000000E5C59CE949
FFFFFF20000000E3659CED00FFFFFF20000000E25C9CDA9E
FFFFFF20000000E2009CDEF7FFFFFF20000000E2D19CE8FB
FFFFFF20000000DE789CE0D5FFFFFF20000000E1499CD95A
FFFFFF20000000E2639CD7FEFFFFFF20000000E1A69CD047
FFFFFF20000000E2939CCCAAFFFFFF20000000E6959CC89B
FFFFFF20000000E1F59CB967FFFFFF20000000E1819CD134
FFFFFF20000000E1C89CDB9CFFFFFF20000000DEBD9CC4F9
FFFFFF20000000E0EC9CB602FFFFFF20000000E2C19CAB38
FFFFFF20000000E5789CB3E5FFFFFF20000000E0A19CAFCF
FFFFFF20000000DC9F9CA264FFFFFF20000000E2909C97A6
FFFFFF20000000E0559C8D7BFFFFFF20000000E7599C8951
FFFFFF20000000E14D9C8CC3FFFFFF20000000E22B9C9854
FFFFFF20000000E09C9C8B66FFFFFF20000000E5D19C82C9
FFFFFF20000000E4649C7F33FFFFFF20000000E5A69C7BB4
FFFFFF20000000E0789C85E1FFFFFF20000000E54C9C8923
FFFFFF20000000E0B89C7973FFFFFF20000000DFBD9C7BFF
FFFFFF20000000E4F39C8133FFFFFF20000000E16A9C771B
FFFFFF20000000E3F79C7562FFFFFF20000000DCD69C78A4
FFFFFF20000000E0D09C6ECDFFFFFF20000000E51C9C65FD
FFFFFF20000000E08E9C6458FFFFFF20000000DC589C663A
FFFFFF20000000E3C39C639AFFFFFF20000000E55B9C5D1E
FFFFFF20000000E5A79C500BFFFFFF20000000E2A19C5348
FFFFFF20000000E33C9C5010FFFFFF20000000E47E9C58B7
FFFFFF20000000E56E9C4FF2FFFFFF20000000DFAC9C41FA
FFFFFF20000000E0769C349DFFFFFF20000000DCFC9C3C9D
FFFFFF20000000DCE69C43B7FFFFFF20000000E2419C30E6
FFFFFF20000000DD439C3640FFFFFF20000000E5D89C365C
FFFFFF20000000E2829C2CEDFFFFFF20000000DBB79C4322
FFFFFF20000000E4E49C288CFFFFFF20000000E09A9C222D
FFFFFF20000000DF6C9C1ECAFFFFFF20000000E0089C07B0
FFFFFF20000000DF5B9C08E8FFFFFF20000000DF5D9C0099
FFFFFF20000000DF209BF5AFFFFFFF20000000E1089BEE37
FFFFFF20000000E5F19BE684FFFFFF20000000DE259BEE75
FFFFFF20000000E0FD9BF3B7FFFFFF20000000E0139BF173
FFFFFF20000000D91E9BE81AFFFFFF20000000DA9F9BEB30
FFFFFF20000000DE099BDC96FFFFFF20000000E5749BDB12
FFFFFF20000000E1FA9BCEB8FFFFFF20000000D9CE9BD6AB
FFFFFF20000000D9789BE5BAFFFFFF20000000DD339BEA45
FFFFFF20000000E2169BF773FFFFFF20000000D99C9BE2D0
FFFFFF20000000E5379BCEF3FFFFFF20000000E24E9BC23E
FFFFFF20000000DCCF9BDF79FFFFFF20000000E71C9BD336
FFFFFF20000000DE639BBF14FFFFFF20000000E2559BC4CA
FFFFFF20000000DF159BBEFCFFFFFF20000000DCEC9BB474
FFFFFF20000000DBDA9BC016FFFFFF20000000DF6C9BB6A1
FFFFFF20000000E01C9BC9CFFFFFFF20000000DF979BDBD6
FFFFFF20000000DF779BD495FFFFFF20000000DD799BC8BB
FFFFFF20000000E2EC9BB6F4FFFFFF20000000DCC39BAFD7
FFFFFF20000000DBAB9BBB0BFFFFFF20000000DA799BB483
FFFFFF20000000DBDD9BD02FFFFFFF20000000DA109BCF89
FFFFFF20000000DDC89BB5ACFFFFFF20000000DFCD9BA669
FFFFFF20000000D9D29BBACDFFFFFF20000000D9829BC498
FFFFFF20000000DDD69BA570FFFFFF20000000D9209BB8D8
FFFFFF20000000D5799BD9D8FFFFFF20000000DAFC9BCAFE
FFFFFF20000000D8DC9BA52BFFFFFF20000000D7279BC19A
FFFFFF20000000D9989BD14DFFFFFF20000000DD589BC91F
FFFFFF20000000D3BB9BCA40FFFFFF20000000DBBA9BA81D
FFFFFF20000000D9959BBDEFFFFFFF20000000DB039BB422
FFFFFF20000000D8AE9BEF29FFFFFF20000000DC199BF561
FFFFFF20000000E0E89BE60DFFFFFF20000000DA399BC507
FFFFFF20000000DBCF9BBDF2FFFFFF20000000DC3F9BEE30
FFFFFF20000000D64D9C11AFFFFFFF20000000DCF49BF59A
FFFFFF20000000DCE19BF119FFFFFF20000000DB049C012D
FFFFFF20000000DADE9C09FBFFFFFF20000000DF159BFBBE
FFFFFF20000000DD2C9BE62BFFFFFF20000000DD019BFC49
FFFFFF20000000D92F9C06D6FFFFFF20000000DE609BF1CA
FFFFFF20000000DBD59C2249FFFFFF20000000D98C9C1BCF
FFFFFF20000000DB059C2432FFFFFF20000000D7079C06C8
FFFFFF20000000D9DF9C07ADFFFFFF20000000D6D39BFB73
FFFFFF20000000DBAE9BFEF3FFFFFF20000000D60F9C19B4
FFFFFF20000000D8129C1149FFFFFF20000000D9079C2318
FFFFFF20000000D5429C3319FFFFFF20000000D9A99C171A
FFFFFF20000000D32E9C12E0FFFFFF20000000DD409C242A
FFFFFF20000000D7CC9C27DCFFFFFF20000000D80D9C2E1E
FFFFFF20000000D71F9C0FE5FFFFFF20000000D6169C3050
FFFFFF20000000DE019C2D6CFFFFFF20000000DCDA9C5B92
FFFFFF20000000DF049C502EFFFFFF20000000D7B19C4C51
FFFFFF20000000DAD99C4733FFFFFF20000000DF399C4CC3
FFFFFF20000000D3B09C35C5FFFFFF20000000D97D9C5F7A
FFFFFF20000000DB7F9C64C4FFFFFF20000000DD239C6007
FFFFFF20000000D7C09C69B1FFFFFF20000000D9EA9C5FAF
FFFFFF20000000DA3F9C57AAFFFFFF20000000D5E39C4FB6
FFFFFF20000000DC9A9C6207FFFFFF20000000DC429C6267
FFFFFF20000000D48C9C5C78FFFFFF20000000D89B9C60DD
FFFFFF20000000DF0C9C5612FFFFFF20000000D6479C6791
FFFFFF20000000D57A9C7D31FFFFFF20000000D7939C7FA6
FFFFFF20000000D8889C9605FFFFFF20000000D9819C9894
FFFFFF20000000D92D9CA9AFFFFFFF20000000D78B9CAC8D
FFFFFF20000000DBB89CB44FFFFFFF20000000D8F79C92F0
FFFFFF20000000DB4A9CA447FFFFFF20000000D71D9CB141
FFFFFF20000000D8119CB59CFFFFFF20000000D6EE9CAC2B
FFFFFF20000000DA119CB6E9FFFFFF20000000DDD89CBA72
FFFFFF20000000D6BC9CC703FFFFFF20000000DD399CCEEA
FFFFFF20000000D8819CCC36FFFFFF20000000DD9F9CDF5B
FFFFFF20000000DB839CDF6DFFFFFF20000000D9689CCCE1
FFFFFF20000000DB439CDB58FFFFFF20000000D6B29CE017
FFFFFF20000000D8559CF3BDFFFFFF20000000DB039CF01E
FFFFFF20000000DA659CFCA3FFFFFF20000000D7A39CF46E
FFFFFF20000000D9D59CFA71FFFFFF20000000D57F9CE0A7
FFFFFF20000000D9A49D0335FFFFFF20000000D7A89D0291
FFFFFF20000000D7D39D1237FFFFFF20000000D5B99D1461
FFFFFF20000000D7989D102FFFFFFF20000000DA429D1C46
FFFFFF20000000D9719D2DA8FFFFFF20000000D4B09D358A
FFFFFF20000000D5BB9D3908FFFFFF20000000DA9C9D3820
FFFFFF20000000D8799D3BF2FFFFFF20000000D6EA9D3DBE
FFFFFF20000000DBB29D4BC0FFFFFF20000000D7DB9D5993
FFFFFF20000000D7BD9D5CE5FFFFFF20000000DAA49D5925
FFFFFF20000000D3689D6182FFFFFF20000000D2C99D6E69
FFFFFF20000000DA269D6BBCFFFFFF20000000D1369D79DE
FFFFFF20000000D8269D7215FFFFFF20000000D8D19D7E81
FFFFFF20000000D3429D89D9FFFFFF20000000D95C9D8258
FFFFFF20000000D5D99D8087FFFFFF20000000D6129D8AB6
FFFFFF20000000D4799D9625FFFFFF20000000D6279D9177
FFFFFF20000000D1449DAA9CFFFFFF20000000D4F49DA8CB
FFFFFF20000000D4229DA91AFFFFFF20000000D3E89DB223
FFFFFF20000000D39E9DC21AFFFFFF20000000D6149DC271
FFFFFF20000000DEC29D9ECDFFFFFF20000000D2079DC3B3
FFFFFF20000000D4AA9DC75BFFFFFF20000000D5C09DBC52
FFFFFF20000000DA359DC72AFFFFFF20000000D55F9DD32F
FFFFFF20000000D8B29DC424FFFFFF20000000E1D19DB647
FFFFFF20000000E41F9DC047FFFFFF20000000D6239DD473
FFFFFF20000000D5799DD773FFFFFF20000000D88C9DD0FC
FFFFFF20000000D3059DEDD5FFFFFF20000000DC1C9DD70D
FFFFFF20000000D3139DEFA5FFFFFF20000000DE339DEB2A
FFFFFF20000000D6A59DECBEFFFFFF20000000D9289DE740
FFFFFF20000000D9D89DE18EFFFFFF20000000DB229DFAB4
FFFFFF20000000D4949E0758FFFFFF20000000D8209DFDB7
FFFFFF20000000D2A39E11FBFFFFFF20000000D1D49E1710
FFFFFF20000000D85B9E0DBEFFFFFF20000000DB679E067B
FFFFFF20000000D57A9E1C9DFFFFFF20000000D31F9E34DD
FFFFFF20000000D8249E3261FFFFFF20000000DABF9E0461
FFFFFF20000000D8039E10E9FFFFFF20000000D70B9E24B3
FFFFFF20000000DA329E2ACAFFFFFF20000000D6589E3987
FFFFFF20000000DCF19E34BCFFFFFF20000000D8FF9E4642
FFFFFF20000000D7439E4150FFFFFF20000000D8BB9E3898
FFFFFF20000000DA139E3B16FFFFFF20000000D5C29E57B3
FFFFFF20000000D7829E5FE2FFFFFF20000000D41F9E770A
FFFFFF20000000DA669E5132FFFFFF20000000D3CC9E764C
FFFFFF20000000D44E9E7AA1FFFFFF20000000D6EE9E8527
FFFFFF20000000D74C9E7D28FFFFFF20000000DEF99E6DFA
FFFFFF20000000D88B9E5739FFFFFF20000000D88C9E7D09
FFFFFF20000000D30C9E9573FFFFFF20000000DB139E7A9A
FFFFFF20000000D7829E82E5FFFFFF20000000D6829E9177
FFFFFF20000000D1049EB187FFFFFF20000000D7169E9EB6
FFFFFF20000000D6BA9E9987FFFFFF20000000DE4B9E8FA7
FFFFFF20000000DF6A9EA4D1FFFFFF20000000DBB59E91E5
FFFFFF20000000DC1B9E9613FFFFFF20000000DB539E9982
FFFFFF20000000D17B9ED153FFFFFF20000000DF119EAEEB
FFFFFF20000000D9329EBFC7FFFFFF20000000D24B9ECDD0
FFFFFF20000000D7BD9EC47DFFFFFF20000000D5639ED7E2
FFFFFF20000000E1449E9407FFFFFF20000000D4F19ECC3A
FFFFFF20000000D4339ED8E7FFFFFF20000000D92F9ECCC4
FFFFFF20000000D9BA9EDDC7FFFFFF20000000D9239EC09F
FFFFFF20000000D5239ED814FFFFFF20000000D3B59EF0C6
FFFFFF20000000DBFF9ECB93FFFFFF20000000DCEC9ECBD3
FFFFFF20000000DA359EDC56FFFFFF20000000DBC29EC637
FFFFFF20000000D91F9EC8FDFFFFFF20000000DA3C9EEB92
FFFFFF20000000D8829EEDBEFFFFFF20000000DFF49EC96D
FFFFFF20000000D3FA9F03ECFFFFFF20000000D2E59F0B20
FFFFFF20000000D6B19F1EC5FFFFFF20000000DD2A9EFE81
FFFFFF20000000DAD89F00C8FFFFFF20000000DB369EF912
FFFFFF20000000DAA19EF52BFFFFFF20000000D7759F0885
FFFFFF20000000DE8A9F0D27FFFFFF20000000D6E69EF9DA
FFFFFF20000000E0BF9EF39FFFFFFF20000000D84D9F0600
FFFFFF20000000D1E09F2862FFFFFF20000000D17B9F2C2F
FFFFFF20000000D9D09F0B4BFFFFFF20000000E2F99EF657
FFFFFF20000000DD2A9F1165FFFFFF20000000DBC09F2445
FFFFFF20000000D97B9F22C6FFFFFF20000000DC379F1F75
FFFFFF20000000DC619EE6ADFFFFFF20000000DD609EF530
FFFFFF20000000DA619F0EBCFFFFFF20000000D6B59F22F1
FFFFFF20000000D6099F2528FFFFFF20000000DAF09F146F
FFFFFF20000000DDB29ED346FFFFFF20000000D4C29F07A5
FFFFFF20000000D8A69F2326FFFFFF20000000DADF9F211F
FFFFFF20000000DB509F0A3EFFFFFF20000000DDC19EFE6C
FFFFFF20000000D4859F37DFFFFFFF20000000D33E9F3110
FFFFFF20000000D7349F2EC4FFFFFF20000000D6069F28CB
FFFFFF20000000D7419F368EFFFFFF20000000D85A9F2D48
FFFFFF20000000D5749F3F58FFFFFF20000000D38F9F46F6
FFFFFF20000000D3239F61C1FFFFFF20000000D7C49F37B5
FFFFFF20000000D4A69F378FFFFFFF20000000D4CE9F4270
FFFFFF20000000D36E9F3CC2FFFFFF20000000DB129F2ACE
FFFFFF20000000D3ED9F594EFFFFFF20000000D60C9F4FE8
FFFFFF20000000D2DC9F6AD9FFFFFF20000000D0739F66C1
FFFFFF20000000D68E9F4221FFFFFF20000000D4479F35E2
FFFFFF20000000D4659F29E6FFFFFF20000000D4399F0F3D
FFFFFF20000000DBFA9F40A7FFFFFF20000000D38B9F43AB
FFFFFF20000000D4A39F2BFDFFFFFF20000000D2BD9F5CE5
FFFFFF20000000D1789F6C0FFFFFFF20000000D0399F65D7
FFFFFF20000000D8679F6CCFFFFFFF20000000DAC19F36F9
FFFFFF20000000D3F99F2C44FFFFFF20000000D82A9F66E5
FFFFFF20000000D47B9F23CCFFFFFF20000000CFE49F52E9
FFFFFF20000000D2339F3EC3FFFFFF20000000D6079F55C3
FFFFFF20000000D4A59F399CFFFFFF20000000D4689F4F34
FFFFFF20000000D7279F5C71FFFFFF20000000D0629F555A
FFFFFF20000000CCED9F49CAFFFFFF20000000D94C9F5CA4
FFFFFF20000000D6DD9F5C3BFFFFFF20000000D5F69F572D
FFFFFF20000000D57E9F4659FFFFFF20000000DAF39F3BD2
FFFFFF20000000D4C39F2FD3FFFFFF20000000D9769F4C33
FFFFFF20000000D44A9F4B8AFFFFFF20000000D3819F74B6
FFFFFF20000000D3779F360DFFFFFF20000000D4B19F7A45
FFFFFF20000000D52D9F7F45FFFFFF20000000D6CA9F5B61
FFFFFF20000000D8A29F501DFFFFFF20000000CFD99F55F6
FFFFFF20000000D8339F6A20FFFFFF20000000D43C9F5B3F
FFFFFF20000000D8039F5C07FFFFFF20000000D5089F69B6
FFFFFF20000000D60F9F3077FFFFFF20000000D4489F542B
FFFFFF20000000E2CA9F4843FFFFFF20000000DD379F3657
FFFFFF20000000D5579F4FBEFFFFFF20000000D90B9F522A
FFFFFF20000000D3969F41C5FFFFFF20000000D5119F5771
FFFFFF20000000D7F59F4F1DFFFFFF20000000D6349F4DCB
FFFFFF20000000D7EB9F5C1BFFFFFF20000000D6039F5F1D
FFFFFF20000000D6CF9F6AB0FFFFFF20000000D40D9F8A04
FFFFFF20000000D7AB9F8625FFFFFF20000000D2C99F8647
FFFFFF20000000D1FA9F8CAFFFFFFF20000000CE429F9B4E
FFFFFF20000000D3C19F98F4FFFFFF20000000D5239F953F
FFFFFF20000000DC829F6AE3FFFFFF20000000D1D09F70A8
FFFFFF20000000D5469F6919FFFFFF20000000D6149F6E14
FFFFFF20000000D7249F63B7FFFFFF20000000D4C09F6745
FFFFFF20000000D77B9F72B0FFFFFF20000000D72D9F6EF3
FFFFFF20000000DD109F69D6FFFFFF20000000D9FD9F70F8
FFFFFF20000000D91D9F7A6FFFFFFF20000000D9C49F8261
FFFFFF20000000D6599F9008FFFFFF20000000DD3C9F7E7B
FFFFFF20000000D6F29F8FB2FFFFFF20000000DAEA9F865D
FFFFFF20000000E1CF9F8463FFFFFF20000000DEF09F8059
FFFFFF20000000DC089F8DCBFFFFFF20000000DE069F8C23
FFFFFF20000000DA3E9F810BFFFFFF20000000DFE79F8456
FFFFFF20000000DD649F8966FFFFFF20000000DB0D9F8A67
FFFFFF20000000E9289F7903FFFFFF20000000D83E9F7B14
FFFFFF20000000DDE09F7DEDFFFFFF20000000DE019F7B1A
FFFFFF20000000D9769F8019FFFFFF20000000D96F9F85C1
FFFFFF20000000DA3A9F8D1AFFFFFF20000000D8A69F89F4
FFFFFF20000000DF2D9F9836FFFFFF20000000D7569F96DA
FFFFFF20000000D9B19F9DFCFFFFFF20000000DD069F9E73
FFFFFF20000000D8E49F996CFFFFFF20000000DF669F9F0F
FFFFFF20000000DD3D9FA35BFFFFFF20000000DA2F9FA80D
FFFFFF20000000D6469FB136FFFFFF20000000D9E59FAFBA
FFFFFF20000000D9759FAE0FFFFFFF20000000DC719FB5BB
FFFFFF20000000DFD59FB338FFFFFF20000000E0649FB02E
FFFFFF20000000DAC79FB4ECFFFFFF20000000E37A9FB762
FFFFFF20000000DC829FC0C4FFFFFF20000000DB789FBC1B
FFFFFF20000000E03D9FBB14FFFFFF20000000E0589FB43C
FFFFFF20000000DDB39FBB81FFFFFF20000000DBF09FB503
FFFFFF20000000DC059FB0EFFFFFFF20000000DC189FB479
FFFFFF20000000E88E9FB73EFFFFFF20000000E3409FB998
FFFFFF20000000DEC59FB4B8FFFFFF20000000DFF49FCA29
FFFFFF20000000DD149FB59EFFFFFF20000000DF329FA9C9
FFFFFF20000000E6FC9FBEC1FFFFFF20000000E81E9FC27A
FFFFFF20000000EA209FC5E7FFFFFF20000000EFEE9FB516
FFFFFF20000000F5D29FB7CBFFFFFF20000000F11C9FBBB8
FFFFFF20000000ED529FB95FFFFFFF20000000E5CD9FB746
FFFFFF20000000E7049FC00CFFFFFF20000000EE149FBF2F
FFFFFF20000000E4989FACD1FFFFFF20000000EA999FC137
FFFFFF20000000E7A09FBAA2FFFFFF20000000E5AF9FBC73
FFFFFF20000000E4D09F9D76FFFFFF20000000E6549FA4D8
FFFFFF20000000E7C09FAA52FFFFFF20000000FDFC9FACCB
FFFFFF20000000E85E9FB948FFFFFF20000000EA4D9FB6A4
FFFFFF20000000E8279FC0EAFFFFFF20000000E7119FDFB0
FFFFFF20000000E6F09FD829FFFFFF20000000EA789FD50C
FFFFFF20000000EB8E9FD3DCFFFFFF20000000EBB29FD5D6
FFFFFF20000000EAF59FCE8BFFFFFF20000000EF429FCAD3
FFFFFF2000000108A39FC53FFFFFFF2000000333E49F7CC7
FFFFFF200000032B1A9F6081FFFFFF2000000224F59F98B9
FFFFFF20000016E2869EFE75FFFFFF20000019BAAB9ECE94
FFFFFF200000086E6D9F2538FFFFFF20000017ADE39EF799
FFFFFF2000001B8D1D9EAE8CFFFFFF20000024B62F9E7ACA
FFFFFF20000027D54E9E897AFFFFFF2000001E99D99EA8F9
FFFFFF2000002462719E8165FFFFFF2000002757E59E6D44
FFFFFF20000024A8B79E7BB7FFFFFF2000002357929E967C
FFFFFF2000002E818E9E43DEFFFFFF2000002AD44E9E4275
FFFFFF20000029FB1D9E645CFFFFFF20000030F7739E3B32
FFFFFF2000002E607A9E33E3FFFFFF2000003114B39E21AC
FFFFFF20000034C72A9E02A2FFFFFF20000035AD1D9E0B8E
FFFFFF20000034FA659E1189FFFFFF20000037CAE69DFEE5
FFFFFF2000003576729E11ECFFFFFF20000036436A9E0AB0
FFFFFF20000034F5DC9E1331FFFFFF20000031F17D9E3BEC
FFFFFF2000003A3AF19DFA95FFFFFF2000003922B59DEB9E
FFFFFF200000336AAB9E324EFFFFFF200000353EAC9E280A
FFFFFF2000003BE1ED9DE424FFFFFF200000377CB49E061A
FFFFFF2000003C9BBA9DC7E8FFFFFF2000003D9A919DCC8D
FFFFFF2000003C01309DDC10FFFFFF2000003E37A39DBC03
FFFFFF2000003D3D1D9DCCA9FFFFFF2000003E56919DBD64
FFFFFF2000003D01349DDACBFFFFFF2000003D20C19DD329
FFFFFF2000003FC6DB9DAC57FFFFFF2000003CEFC39DDB1D
FFFFFF200000406E279DAB79FFFFFF2000003F8C939DACE8
FFFFFF20000040E1539DA38AFFFFFF20000040D03D9DA17B
FFFFFF2000004286D49D9FD9FFFFFF200000427E689D9261
FFFFFF2000004217609D96EAFFFFFF2000004124F59DA092
FFFFFF2000004197B69D9CEBFFFFFF20000042E8579D95A5
FFFFFF20000043B4789D8110FFFFFF20000043FFBF9D7EAD
FFFFFF2000004312719D8604FFFFFF200000431BDF9D8806
FFFFFF20000043C7539D81E6FFFFFF2000004602229D6680
FFFFFF2000004694BD9D55A4FFFFFF20000048703E9D4A2A
FFFFFF20000045919F9D617AFFFFFF20000045EAD29D6A6F
FFFFFF2000004519499D61AAFFFFFF20000047DB089D54E6
FFFFFF20000046A35C9D6958FFFFFF20000046EB629D607E
FFFFFF2000004890509D49B3FFFFFF20000047D3019D4FEC
FFFFFF20000047F2849D5353FFFFFF20000048A5249D461D
FFFFFF20000047A27C9D4BC4FFFFFF2000004771959D577D
FFFFFF20000048C1479D459BFFFFFF2000004AF19F9D2840
FFFFFF2000004B487C9D24EEFFFFFF20000049F88B9D36EF
FFFFFF2000004B2A9B9D274AFFFFFF2000004B09BB9D297B
FFFFFF2000004AD9E39D2DBEFFFFFF2000004A59909D2EAD
FFFFFF2000004A9A909D2F79FFFFFF2000004A968C9D3408
FFFFFF2000004AB1DD9D324AFFFFFF2000004B68739D2B4B
FFFFFF2000004C80DA9D1D15FFFFFF20000049CC539D3BD7
FFFFFF2000004AAA209D3349FFFFFF2000004A49429D35FE
FFFFFF2000004B1BA49D2BB7FFFFFF2000004B3C219D2D00
FFFFFF2000004BB1939D28F4FFFFFF2000004A7B8C9D2AF2
FFFFFF2000004B16E69D2CF9FFFFFF2000004BD28D9D280B
FFFFFF2000004A7E799D3468FFFFFF2000004B8D999D2248
FFFFFF2000004B23269D24BEFFFFFF2000004AF65F9D2ECD
FFFFFF2000004B03649D295BFFFFFF2000004C43BB9D1DAD
FFFFFF2000004BCC219D24EDFFFFFF2000004C40199D1F4A
FFFFFF2000004B86AD9D2574FFFFFF2000004AF5039D32BC
FFFFFF2000004BC4C69D2951FFFFFF2000004BF09C9D23B7
FFFFFF2000004BB5339D2680FFFFFF2000004BB3AA9D270E
FFFFFF2000004B4E7A9D287FFFFFFF2000004B8D959D2525
FFFFFF2000004BD1B09D2357FFFFFF2000004BE26A9D1FE6
FFFFFF2000004B800A9D2435FFFFFF2000004BCACE9D2341
FFFFFF2000004BCA1C9D2110FFFFFF2000004BFCF89D1DFD
FFFFFF2000004C22B89D1C6EFFFFFF2000004C36A79D1BEE
FFFFFF2000004C6EF09D1BD4FFFFFF2000004C93569D1A9F
FFFFFF2000004C01669D2001FFFFFF2000004B21F09D2B6F
FFFFFF2000004AC82F9D2DC3FFFFFF2000004B5BCB9D2B39
FFFFFF2000004C1E299D20D1FFFFFF2000004C17649D1FDB
FFFFFF2000004C69769D1B6BFFFFFF2000004C98649D1839
FFFFFF2000004C7EB79D1BC3FFFFFF2000004C33659D1EE4
FFFFFF2000004BD6E19D220CFFFFFF2000004BF36A9D22F2
FFFFFF2000004B75BE9D274CFFFFFF2000004C5B709D1E48
FFFFFF2000004C1E1C9D1F48FFFFFF2000004C46B19D1E64
FFFFFF2000004C229D9D213BFFFFFF2000004C32B29D20BA
FFFFFF2000004C4B699D2014FFFFFF2000004CA6359D1D24
FFFFFF2000004C62C39D1DC3FFFFFF2000004BEBBC9D1F85
FFFFFF2000004BE6979D21ADFFFFFF2000004BF5CD9D2162
FFFFFF2000004B3C7F9D2D39FFFFFF2000004C64479D1D90
FFFFFF2000004C5AF99D1DC5FFFFFF2000004C9B429D1C73
FFFFFF2000004C26309D2145FFFFFF2000004CF7AC9D1CF7
FFFFFF2000004C973E9D1ED9FFFFFF2000004CA9F89D1E72
FFFFFF2000004CAA6F9D1EA1FFFFFF2000004CCE169D1F5F
FFFFFF2000004CB5A09D1F71FFFFFF2000004D0B1F9D1C08
FFFFFF2000004C77B59D1CD0FFFFFF2000004CD89F9D1EAC
FFFFFF2000004C3A599D22A7FFFFFF2000004B38BD9D33EE
FFFFFF2000004CA6AE9D21CFFFFFFF2000004CA6A99D2298
FFFFFF2000004C93B89D222EFFFFFF2000004BFE9C9D2C47
FFFFFF2000004CC7719D2042FFFFFF2000004ACC339D3806
FFFFFF2000004C290C9D287AFFFFFF2000004CA0559D2312
FFFFFF2000004C667B9D2560FFFFFF2000004C2FDD9D2893
FFFFFF2000004B214B9D364DFFFFFF2000004C52CA9D2734
FFFFFF2000004C7EFE9D25E3FFFFFF2000004A9DDD9D3A25
FFFFFF2000004BFD2D9D2DB2FFFFFF2000004BBE5C9D2F1F
FFFFFF2000004C143D9D29E9FFFFFF2000004BC9F49D2D52
FFFFFF2000004B84CE9D31B2FFFFFF2000004B35EE9D3660
FFFFFF2000004C8B639D2722FFFFFF2000004B60DD9D30F7
FFFFFF2000004AE96C9D39ABFFFFFF2000004AC3AA9D3AEB
FFFFFF2000004B1C669D3690FFFFFF2000004B139B9D3932
FFFFFF2000004BE5029D2FF3FFFFFF2000004C416A9D2C41
FFFFFF2000004BA90B9D314FFFFFFF2000004BEA2A9D2E55
FFFFFF2000004C7BD89D2BF3FFFFFF2000004C0EBB9D2B13
FFFFFF2000004B728D9D3398FFFFFF20000049A0CC9D44C7
FFFFFF2000004B350D9D37ACFFFFFF20000049C1779D3B5C
FFFFFF2000004A5AEE9D3C36FFFFFF2000004A3D709D3E76
FFFFFF2000004B32ED9D34A8FFFFFF2000004B7F509D3302
FFFFFF2000004BC19A9D2BC8FFFFFF2000004BA0AB9D3092
FFFFFF2000004B2B569D3479FFFFFF2000004B6D289D321B
FFFFFF2000004C17D59D2DA3FFFFFF2000004B93C69D342D
FFFFFF2000004B3C7B9D3737FFFFFF2000004C3DAD9D2DB2
FFFFFF2000004BBEA79D313BFFFFFF2000004B1D2F9D3750
FFFFFF2000004B8CDC9D3053FFFFFF2000004C4C5E9D2E48
FFFFFF2000004AA0F59D37CAFFFFFF2000004B6B319D306A
FFFFFF2000004B19CB9D33C7FFFFFF2000004B2E689D31CA
FFFFFF2000004B6A279D312EFFFFFF2000004BAFB49D2FCE
FFFFFF2000004BB9649D2F14FFFFFF2000004B2D7A9D359E
FFFFFF2000004ACC6B9D3846FFFFFF2000004B1B5F9D35B4
FFFFFF2000004B31299D3576FFFFFF2000004B59A99D34E4
FFFFFF2000004A36499D4159FFFFFF2000004B23A39D381E
FFFFFF2000004B12C69D36DCFFFFFF2000004B6E519D34AA
FFFFFF2000004AB1899D3D71FFFFFF2000004ACD369D3CE0
FFFFFF2000004A57309D3D11FFFFFF2000004B20459D3B29
FFFFFF2000004AC3F09D3A55FFFFFF2000004A96CF9D39D7
FFFFFF2000004A7A1B9D39AEFFFFFF2000004AB2CE9D3C6D
FFFFFF2000004B0BC79D39F0FFFFFF2000004AE94A9D3942
FFFFFF2000004A7DDD9D394BFFFFFF2000004B09DF9D355C
FFFFFF2000004B33529D3316FFFFFF2000004B1E219D354E
FFFFFF2000004B2ECD9D33D7FFFFFF2000004B3E329D3527
FFFFFF2000004B1D3D9D3529FFFFFF2000004B16EA9D3477
FFFFFF2000004B063F9D3751FFFFFF2000004A4FE59D3E63
FFFFFF2000004AD73E9D36A3FFFFFF2000004ADA6D9D3805
FFFFFF2000004B0F0D9D36AAFFFFFF2000004B242C9D3806
FFFFFF2000004AE6389D36B4FFFFFF2000004ADD209D39E3
FFFFFF2000004A351B9D43E0FFFFFF2000004AA1209D4097
FFFFFF2000004AFD949D361FFFFFFF2000004B21F69D36A3
FFFFFF2000004A34269D4212FFFFFF2000004A981B9D410C
FFFFFF2000004A42EC9D4356FFFFFF2000004B3A8B9D3CE2
FFFFFF2000004B13D19D38B4FFFFFF2000004999F89D4A2C
FFFFFF2000004932669D4626FFFFFF2000004ABB4C9D3BC7
FFFFFF2000004AD5A79D3A7DFFFFFF2000004A3F6F9D3F25
FFFFFF200000494D169D4D30FFFFFF20000049ADD19D46B2
FFFFFF20000049B47D9D44DFFFFFFF2000004A6E289D3FF0
FFFFFF2000004A059E9D43E5FFFFFF2000004A1F599D42FC
FFFFFF2000004A45BC9D3F5FFFFFFF2000004A49829D3F4E
FFFFFF2000004973599D4A92FFFFFF200000499FBB9D4C1E
FFFFFF20000049E1E29D453FFFFFFF2000004A426E9D3FC6
FFFFFF2000004A5B1D9D3F36FFFFFF2000004A32FD9D4161
FFFFFF20000049B4EE9D46F1FFFFFF2000004990509D49E5
FFFFFF2000004ABE279D3B11FFFFFF20000049AF5F9D4A35
FFFFFF2000004A23B69D459CFFFFFF2000004A9B249D3E43
FFFFFF20000049C9599D432EFFFFFF2000004A47FF9D4057
FFFFFF2000004A6C6C9D3EDAFFFFFF2000004A10A59D43B1
FFFFFF2000004990DD9D411FFFFFFF2000004A50FC9D3FC6
FFFFFF20000049986D9D47E8FFFFFF2000004A15989D44CA
FFFFFF200000491E7B9D4DE8FFFFFF2000004955BF9D50ED
FFFFFF2000004922889D5449FFFFFF200000492E5B9D4C58
FFFFFF2000004893629D51A3FFFFFF20000048D32B9D53E5
FFFFFF20000048A4979D4A4AFFFFFF2000004960129D4D45
FFFFFF2000004734369D6858FFFFFF2000004A0E679D48F2
FFFFFF20000048BF4F9D483FFFFFFF20000047EF059D5907
FFFFFF200000489FE29D4795FFFFFF20000048ABF59D4F01
FFFFFF20000046A5629D6C0BFFFFFF20000045DE5F9D60ED
FFFFFF2000004808209D5CAAFFFFFF2000004363CB9D84BC
FFFFFF20000045B7AB9D79BCFFFFFF2000004655E19D55A9
FFFFFF200000437CE29D7ED5FFFFFF2000004750139D5090
FFFFFF20000047B0C79D51BEFFFFFF20000043C9B09D8E9A
FFFFFF2000004A214A9D48B4FFFFFF20000044AF589D683F
FFFFFF20000045BF0B9D5FADFFFFFF200000461EC29D591F
FFFFFF20000049A11B9D4CEBFFFFFF20000048DF939D5C28
FFFFFF2000004474519D818EFFFFFF20000041A7399D603F
FFFFFF2000004803389D50C5FFFFFF20000042E42A9D7AE3
FFFFFF200000418C719D8963FFFFFF20000042AA539DA068
FFFFFF2000003E740B9DC7C1FFFFFF200000408E979D966D
FFFFFF2000003CFDB59DCE66FFFFFF20000040580C9D8C3E
FFFFFF20000044D1949D67B7FFFFFF20000040605F9D90D4
FFFFFF20000044CB5B9D77D3FFFFFF20000047559F9D6E48
FFFFFF20000043EDD09D8D09FFFFFF2000004072FC9DA5DF
FFFFFF2000003DFEC59D7A82FFFFFF2000003F36FC9D88DD
FFFFFF2000003CBB9D9DA5C4FFFFFF2000003949C19DF851
FFFFFF2000003A4A489DF8AAFFFFFF2000003A25D19DDDAD
FFFFFF20000039987C9E174BFFFFFF2000003BC9B89E0005
FFFFFF2000003A87BD9E017AFFFFFF2000003DB12F9DF0F6
FFFFFF2000003B60C79DE011FFFFFF2000003E64399DC565
FFFFFF2000003F6BA79DD070FFFFFF20000034E86A9E2073
FFFFFF20000040F7B49DA259FFFFFF200000402A519DADA8
FFFFFF20000034DDF29E45E0FFFFFF20000025E6E29E80B0
FFFFFF2000002CAD739E7FD3FFFFFF200000344D549DF1F2
FFFFFF20000033E37F9E6878FFFFFF2000001CB7809F3A6F
FFFFFF2000003588CB9E20A9FFFFFF2000003367979E7519
FFFFFF2000002B1A5B9E9237FFFFFF20000024A6FF9EE418
FFFFFF2000002CDD4B9EB3A4FFFFFF2000002190D09EC772
FFFFFF20000018E3F49F3FD2FFFFFF2000002C1BB79EBA02
FFFFFF200000199C929F32CAFFFFFF2000001618ED9FF1DD
FFFFFF20000027FD8C9EFA44FFFFFF20000023E4DE9F25D3
FFFFFF2000001463A89FE1ABFFFFFF2000001908B29F3B87
FFFFFF2000001C3DB09F46CAFFFFFF2000001C31799FB1CC
FFFFFF2000001BFE779FDCA4FFFFFF200000128C4E9FDC13
FFFFFF2000000F561EA07056FFFFFF20000010388EA0886D
FFFFFF2000000E2EFFA07435FFFFFF2000000EAAE6A08547
FFFFFF2000000FA0ABA0A6BCFFFFFF2000000A86C8A03048
FFFFFF2000000903A9A0E867FFFFFF2000000971B2A110AA
FFFFFF2000001137A5A08708FFFFFF200000092FDFA1299C
FFFFFF20000009779AA11FC6FFFFFF200000089A75A11519
FFFFFF200000090538A12373FFFFFF2000000A5E94A0F857
FFFFFF20000008DD8BA114AFFFFFFF200000093171A10DE5
FFFFFF2000001730169F634BFFFFFF2000001426D6A06A64
FFFFFF2000000846D7A143BCFFFFFF2000000840CEA1483E
FFFFFF200000088B9BA116F0FFFFFF2000000A557CA10B70
FFFFFF20000009ABBDA10257FFFFFF20000009DBE4A146E9
FFFFFF20000008E443A12112FFFFFF20000009BD60A1136B
FFFFFF2000000989EBA13319FFFFFF2000000849A9A15093
FFFFFF20000007A727A17189FFFFFF2000000B1443A14BB5
FFFFFF2000000ADB68A15357FFFFFF2000000AA6F4A14C77
FFFFFF20000008ED9AA13B97FFFFFF20000007A9A4A1499F
FFFFFF2000000AFDD4A14F3FFFFFFF20000008B4A3A158CE
FFFFFF2000000746F0A135BFFFFFFF200000085096A16303
FFFFFF2000000794B0A155DDFFFFFF20000007D0FEA178E9
FFFFFF200000082C0CA17B2DFFFFFF20000007B051A157DC
FFFFFF200000076FE0A17AD9FFFFFF20000008B004A16138
FFFFFF200000086FACA180F2FFFFFF200000091DFBA17653
FFFFFF20000006E8CEA19605FFFFFF20000008AB49A16B8E
FFFFFF200000073239A165A1FFFFFF20000007689DA192E2
FFFFFF20000006A051A19BBBFFFFFF200000071235A181DC
FFFFFF200000076FACA19665FFFFFF20000007D3AEA177A2
FFFFFF200000079B1BA17B41FFFFFF200000074F2FA185FC
FFFFFF2000000745B3A1A2F2FFFFFF20000006EAA0A1BB71
FFFFFF200000075CE7A1C0D4FFFFFF200000070206A1AE13
FFFFFF20000006BAB6A1BD3FFFFFFF200000077067A195AD
FFFFFF2000000770BCA1B043FFFFFF2000000720AAA1A7AC
FFFFFF2000000741C1A1B350FFFFFF2000000662C9A1CC9E
FFFFFF200000065350A1B149FFFFFF20000006E4B4A1B67A
FFFFFF200000067CCFA1BAB4FFFFFF2000000747A6A1B130
FFFFFF200000071EE9A1BFA1FFFFFF200000068D75A1DCCC
FFFFFF2000000688FAA1D5C1FFFFFF200000068A6DA1C6AC
FFFFFF20000006C993A1CE87FFFFFF20000006898BA1DE04
FFFFFF20000006FB25A1B952FFFFFF20000006DF6FA1BC6A
FFFFFF20000006B84CA1C862FFFFFF20000006952AA1D6C3
FFFFFF20000005E9EFA1D176FFFFFF200000065C4FA1CFE3
FFFFFF20000006431BA1C1CFFFFFFF200000066454A1CF70
FFFFFF2000000639AAA1DFA6FFFFFF2000000674E5A1CEBF
FFFFFF200000065667A1E659FFFFFF200000061E82A1D93C
FFFFFF2000000671D9A1D637FFFFFF20000006A719A1CC68
FFFFFF20000005C7FDA1E92EFFFFFF20000005F8A7A1E91C
FFFFFF20000005E41AA1DB7CFFFFFF200000058899A209F1
FFFFFF2000000606DAA1E180FFFFFF20000006DDEDA1CDB9
FFFFFF20000005EE15A1E26BFFFFFF2000000655CBA1FA80
FFFFFF20000005FFCBA1FB9EFFFFFF20000005D885A1EE8E
FFFFFF20000006487FA1E63BFFFFFF20000005B4E9A1F86A
FFFFFF200000055158A21720FFFFFF200000058EA6A2115B
FFFFFF2000000658BDA1E5D4FFFFFF200000054A08A1F9DB
FFFFFF20000005D765A1F7EFFFFFFF200000066D37A1E73D
FFFFFF20000004B92DA2130EFFFFFF20000005669FA1F4CB
FFFFFF20000005A021A1E743FFFFFF200000055CB6A1F5F0
FFFFFF20000005A41AA1CC5FFFFFFF200000059538A1E057
FFFFFF2000000553A1A1EE77FFFFFF2000000506E8A1FB12
FFFFFF200000056F72A1D0C9FFFFFF20000006A5F8A1D013
FFFFFF200000053776A1ED08FFFFFF20000005013CA1F361
FFFFFF20000006E142A1CB7FFFFFFF20000005AECFA1D6F3
FFFFFF200000059181A1D70BFFFFFF2000000527AAA1E51C
FFFFFF2000000558CEA1E38CFFFFFF200000060FE1A1D166
FFFFFF200000052B9FA1D89DFFFFFF20000004A5D0A1E333
FFFFFF200000055442A1CD4CFFFFFF20000005A8F2A1D9ED
FFFFFF20000006466DA1D619FFFFFF200000055A02A1E5BF
FFFFFF20000004DB98A1D44DFFFFFF200000059574A1C82A
FFFFFF2000000560D5A1E933FFFFFF20000004E0D2A1E66B
FFFFFF20000004AD0FA1EAB8FFFFFF20000004D44FA1CB03
FFFFFF200000048C64A1F431FFFFFF20000004A875A1E8F1
FFFFFF2000000597ADA1D722FFFFFF200000048AFEA1D481
FFFFFF200000055DD7A1DF02FFFFFF200000045948A1E468
FFFFFF200000047550A1DC55FFFFFF200000047DCCA1DAF3
FFFFFF200000059F6DA1CB16FFFFFF20000005D1C3A1BD3C
FFFFFF200000085D20A1ADF4FFFFFF200000079BE5A1B992
FFFFFF200000091B47A18B0EFFFFFF20000008C5ABA192FC
FFFFFF20000009B96FA19DCBFFFFFF200000084670A197D2
FFFFFF200000078BACA1A389FFFFFF200000063E4EA1A07D
FFFFFF20000005819BA1A9D1FFFFFF20000005D2CEA1B200
FFFFFF20000005FD5BA19B72FFFFFF200000059C0AA196E3
FFFFFF20000004E36BA1AC14FFFFFF20000004C45DA1C403
FFFFFF20000004BD75A1C695FFFFFF20000004A2AEA1C317
FFFFFF2000000495EBA1A898FFFFFF20000004F455A1ABE8
FFFFFF200000045CA1A1A3CFFFFFFF20000004BBB8A1A0A6
FFFFFF200000048DB8A19D96FFFFFF20000004684EA183EB
FFFFFF20000004880EA17436FFFFFF200000048547A1637E
FFFFFF20000004DA01A178FEFFFFFF20000004EA65A178BB
FFFFFF20000004A378A16976FFFFFF200000050952A161E7
FFFFFF20000004206DA16E46FFFFFF200000049BA0A16C07
FFFFFF20000003FEF3A1706DFFFFFF200000042CBDA1795D
FFFFFF20000003CFBAA1901EFFFFFF2000000361B0A17B69
FFFFFF200000033643A170A4FFFFFF20000003379FA17B16
FFFFFF200000042C8FA16362FFFFFF20000005FBAAA127B5
FFFFFF2000000537CDA130B1FFFFFF200000070E0DA12B33
FFFFFF2000000594D0A126ADFFFFFF20000005C5E1A12357
FFFFFF20000006028EA1268FFFFFFF200000068CB5A128DB
FFFFFF200000058B77A12F36FFFFFF20000004ACA8A101CC
FFFFFF200000047DB6A0ED4BFFFFFF20000004CD74A10214
FFFFFF200000046632A1336EFFFFFF20000003FBEBA13F7E
FFFFFF20000003B479A0EF55FFFFFF20000003323DA0FF5F
FFFFFF20000003356EA1062BFFFFFF20000003164CA1023E
FFFFFF20000002A5D1A103C9FFFFFF20000002B0ABA10199
FFFFFF200000023EDAA0FD64FFFFFF20000002017CA0F54B
FFFFFF200000020EBCA0EB7CFFFFFF200000021EF1A0E2EE
FFFFFF200000024FE9A0A22BFFFFFF200000024F23A0D061
FFFFFF200000025872A0A8BBFFFFFF200000026553A0AA3B
FFFFFF200000026008A08AE4FFFFFF2000000258E2A09529
FFFFFF200000025578A07BAFFFFFFF200000024610A09A23
FFFFFF20000002271EA0BC01FFFFFF200000021751A0C871
FFFFFF200000020662A0C5E1FFFFFF20000002007CA0C1A9
FFFFFF20000001F17FA0B5CFFFFFFF20000001E616A0ABF1
FFFFFF20000001DFBDA09AD1FFFFFF20000001D30CA084F0
FFFFFF20000001CDA4A081B0FFFFFF20000001CEEEA07D12
FFFFFF20000001C8B4A070A1FFFFFF20000001BB02A065AB
FFFFFF20000001C150A062C1FFFFFF20000001B891A05189
FFFFFF20000001B87EA04CF1FFFFFF20000001C960A03F8E
FFFFFF20000001B890A027D9FFFFFF20000001BF31A0199C
FFFFFF20000001C1A7A01982FFFFFF20000001C6CCA03130
FFFFFF20000001C4CFA05D02FFFFFF20000001DED0A05F4D
FFFFFF20000001FC40A02BF9FFFFFF20000001EDD3A02F9C
FFFFFF20000001E264A0259AFFFFFF20000001E315A02AFE
FFFFFF20000001D16BA01D51FFFFFF20000001D341A00D94
FFFFFF20000001DECBA01A20FFFFFF20000001DC4CA014DB
FFFFFF20000001D643A01F47FFFFFF20000001DCD5A01002
FFFFFF20000001F3479FFABAFFFFFF20000001CD93A007D0
FFFFFF20000001E1559FF58FFFFFFF20000001EB4E9FE55F
FFFFFF20000001D3DA9FF095FFFFFF20000001C8C89FE1D4
FFFFFF20000001DEFC9FC32CFFFFFF20000001D3719FC3EA
FFFFFF20000001E5FD9FA825FFFFFF20000001D8C59FA8E2
FFFFFF20000001CC489FB86CFFFFFF20000001EA049F9122
FFFFFF20000001E2199F8825FFFFFF20000001C03A9F8ABD
FFFFFF20000001EC559F6DD3FFFFFF20000001DAEC9F6114
FFFFFF20000001CDDB9F6ACEFFFFFF20000001E22D9F4BC6
FFFFFF20000001DF7B9F56AEFFFFFF20000001DA709F56E1
FFFFFF20000001EB949F3D60FFFFFF20000001CD909F43F3
FFFFFF20000001D9A19F2415FFFFFF20000001D9489F2795
FFFFFF20000001F7A49F076DFFFFFF20000001D89A9F1505
FFFFFF20000001F7219EF6F9FFFFFF20000001FF679EE4DC
FFFFFF2000000200A89EE110FFFFFF20000001EFF89ED355
FFFFFF20000001F6259ED165FFFFFF20000001E6C89EC605
FFFFFF2000000208C49EAE76FFFFFF20000001F5B79E96D8
FFFFFF2000000204439E9D6AFFFFFF2000000206DD9E98FD
FFFFFF20000001F44E9E8320FFFFFF20000001E45C9E7CD2
FFFFFF20000001EF9B9E77D2FFFFFF20000001F1C19E684E
FFFFFF20000001E8EE9E6234FFFFFF20000001D1D49E428F
FFFFFF20000001D0E69E4949FFFFFF20000001C7C49E3C9F
FFFFFF20000001D89E9E3796FFFFFF20000001C4589E2B09
FFFFFF20000001CD2E9E2014FFFFFF20000001CA189E172F
FFFFFF20000001C8669E08C5FFFFFF20000001C70B9E03C8
FFFFFF20000001CA739E0372FFFFFF20000001D9219DF83D
FFFFFF20000001BBE59DEAEEFFFFFF20000001D0F89DDDCE
FFFFFF20000001BCFD9D9F56FFFFFF20000001D7149D9C6B
FFFFFF20000001E4109DB143FFFFFF20000001D2189DADE5
FFFFFF20000001BEFF9DA326FFFFFF20000001BF7F9D9304
FFFFFF20000001BA4D9D8C61FFFFFF20000001BD529D77BE
FFFFFF20000001CDE89D69E8FFFFFF20000001C6019D5B4B
FFFFFF20000001CCBA9D538CFFFFFF20000001BE219D3F63
FFFFFF20000001C0749D3779FFFFFF20000001D5C69D326A
FFFFFF20000001DD849D3187FFFFFF20000001D6AF9D2D86
FFFFFF20000001E84F9D254DFFFFFF20000001ED7C9D2078
FFFFFF20000001E5D39CFB4CFFFFFF20000001E69F9CF947
FFFFFF20000001CC6A9CDB8AFFFFFF20000001D3919CE706
FFFFFF20000001B5F89CCDF3FFFFFF20000001B1A09CCE0A
FFFFFF2000000192FB9CA380FFFFFF200000018D4E9C9460
FFFFFF2000000184939C8938FFFFFF2000000177F89C6F37
FFFFFF200000015F6C9C62ABFFFFFF2000000169F79C7146
FFFFFF2000000157F09C5498FFFFFF200000014FFB9C4BAA
FFFFFF2000000151839C3839FFFFFF200000015C509C49B4
FFFFFF2000000160B79C3D2FFFFFFF2000000188629C379E
FFFFFF200000016C139C335EFFFFFF2000000166F19C3928
FFFFFF200000016D309C4170FFFFFF20000001761C9C440B
FFFFFF200000019E849C5C60FFFFFF20000001C0699BF581
FFFFFF20000001AB759C1D40FFFFFF200000018CF59C2CA2
FFFFFF2000000198219C1377FFFFFF2000000195DC9C0837
FFFFFF2000000179639BD8BAFFFFFF20000001901B9BF54B
FFFFFF200000019BC69BFF4EFFFFFF200000018F159BD9DF
FFFFFF200000019FCF9BE9C0FFFFFF20000001B1209BE235
FFFFFF20000001A85E9BC225FFFFFF20000001AB039BB961
FFFFFF20000001A1B59BA369FFFFFF20000001AEFE9BB1BC
FFFFFF20000001C5A79BC57BFFFFFF20000001C3489BC3C2
FFFFFF20000001D41C9BF06EFFFFFF20000001C4C19BD672
FFFFFF20000001B8C89BB17CFFFFFF200000019F939B9209
FFFFFF2000000184559B6507FFFFFF2000000162D09B4EEA
FFFFFF2000000159A69B255DFFFFFF20000001555B9AE2DA
FFFFFF20000001370F9ABC9CFFFFFF2000000130BE9AB627
FFFFFF2000000129829AB9D5FFFFFF200000011B6A9AE4A6
FFFFFF20000001237D9A69D0FFFFFF200000011F829AA0F0
FFFFFF200000011E799ABFBCFFFFFF200000011BCE9A8AEF
FFFFFF2000000120229AA2A2FFFFFF2000000118949A74A0
FFFFFF200000011A599A6D02FFFFFF2000000119A09A631D
FFFFFF2000000118959A5F39FFFFFF2000000119399A5903
FFFFFF200000011B439A4FD3FFFFFF200000011D419A54B4
FFFFFF20000001225F9A84E0FFFFFF2000000130DB9ABB74
FFFFFF2000000141419ACDD6FFFFFF200000013B7C9AA1BD
FFFFFF2000000142C99A8A17FFFFFF20000001415F9A56BA
FFFFFF2000000150D29A3F99FFFFFF2000000162389A583E
FFFFFF200000014BC59A207FFFFFFF2000000146969A19B9
FFFFFF2000000153B59A1FD2FFFFFF200000015F739A3BD6
FFFFFF200000015AB89A18B8FFFFFF200000015AB799FAA3
FFFFFF200000014E4C99CC9EFFFFFF200000015D1E99BA59
FFFFFF20000001591899A68AFFFFFF20000001822099F54F
FFFFFF2000000148AB998954FFFFFF2000000145CA9994E4
FFFFFF200000015521998A98FFFFFF200000015DCE99877E
FFFFFF2000000153EA99A0B3FFFFFF200000015683999A20
FFFFFF200000015753997E11FFFFFF200000015689997060
FFFFFF200000018C1499CA07FFFFFF20000001B7529A1312
FFFFFF20000001972A99ECBDFFFFFF20000001B6729A19B2
FFFFFF200000019BD799F8DFFFFFFF20000001991D99F8C9
FFFFFF200000019AB599E293FFFFFF2000000189B5999EE8
FFFFFF200000016A759984C5FFFFFF200000016157994FA2
FFFFFF200000015BEC994C5FFFFFFF2000000156B2992AEA
FFFFFF2000000152F49913ECFFFFFF200000014A4498F69B
FFFFFF20000001323E98E3F5FFFFFF200000012AF498A2EF
FFFFFF200000012BD8987FA6FFFFFF200000013548989A05
FFFFFF20000001483198F8E7FFFFFF200000013F0999044F
FFFFFF20000001353498CD00FFFFFF2000000150AD994A29
FFFFFF20000001414098E716FFFFFF200000014D10994A3A
FFFFFF2000000152AE997DA8FFFFFF200000014F8899032D
FFFFFF2000000140AD996085FFFFFF200000013D5299026D
FFFFFF20000001406598CDFBFFFFFF200000013421984EF7
FFFFFF200000013BED986950FFFFFF20000001405A987220
FFFFFF200000012865982A0EFFFFFF20000001269D981C2F
FFFFFF2000000123CF981D0DFFFFFF2000000117C6983A3B
FFFFFF2000000109CF986308FFFFFF2000000111F59870AB
FFFFFF20000001152498341BFFFFFF20000001173898282C
FFFFFF200000010F2C97FCD2FFFFFF2000000112F1980930
FFFFFF200000011768982B6AFFFFFF20000001152097B380
FFFFFF20000001162F979A3FFFFFFF2000000117CB97B009
FFFFFF200000012A09979DA5FFFFFF20000001293E979972
FFFFFF2000000124769776F8FFFFFF2000000129659782DF
FFFFFF20000001296A97873DFFFFFF20000001267E979844
FFFFFF2000000127D09784C5FFFFFF200000012D97979F83
FFFFFF200000011D8797DF5FFFFFFF20000001154097BF21
FFFFFF200000011ACD97F02AFFFFFF200000011F1497D9FA
FFFFFF200000012EB498073EFFFFFF2000000128D497B56F
FFFFFF200000012FB997E834FFFFFF2000000135A697D0CA
FFFFFF20000001395897C05EFFFFFF2000000143D3973D9D
FFFFFF20000001463297563AFFFFFF20000001451897326E
FFFFFF20000001426B973275FFFFFF20000001476E974B33
FFFFFF200000014555974BA6FFFFFF2000000140FA9750FD
FFFFFF200000013831977553FFFFFF200000013401978299
FFFFFF2000000132DD976BB3FFFFFF200000012CFE976538
FFFFFF200000013B6397189CFFFFFF200000012B6E973727
FFFFFF2000000135CE970795FFFFFF2000000128FB970E8E
FFFFFF2000000125D596F9FAFFFFFF20000001263396D165
FFFFFF20000001248696B7C7FFFFFF20000001266796B584
FFFFFF2000000125D096B5FDFFFFFF2000000125DB96B017
FFFFFF20000001258296AF57FFFFFF20000001252D96A4D7
FFFFFF20000001261896A3A3FFFFFF20000001345F96F393
FFFFFF200000012F1E96AF04FFFFFF20000001409696BD51
FFFFFF2000000135FB96A9ADFFFFFF200000013FE6970039
FFFFFF20000001378996D66AFFFFFF200000013E1A97912A
FFFFFF20000001355E97ADD3FFFFFF200000013C2C9797C7
FFFFFF2000000131F497B55BFFFFFF200000013A2D97B7B4
FFFFFF200000013DDC9711F7FFFFFF20000001263497B207
FFFFFF200000010D7C97C315FFFFFF20000001188E979EDC
FFFFFF200000011616973854FFFFFF2000000116E597245C
FFFFFF2000000118F196EF5CFFFFFF2000000117ED96A7C8
FFFFFF20000001176096884DFFFFFF2000000118559668E3
FFFFFF2000000111C396CFB8FFFFFF2000000116B196DF6D
FFFFFF200000011A50969ACFFFFFFF200000010A119744A3
FFFFFF2000000108A4979670FFFFFF20000001008397A648
FFFFFF200000010A11978B29FFFFFF20000000FD61979988
FFFFFF200000010766978775FFFFFF200000010E549702B3
FFFFFF2000000108F096CAAFFFFFFF200000010CA796A011
FFFFFF2000000111999664E7FFFFFF200000010C02964437
FFFFFF200000010C8F962B38FFFFFF200000010AF49605A8
FFFFFF20000001132B96BDB2FFFFFF200000011FC896586B
FFFFFF200000012261966EA5FFFFFF2000000117AF96667F
FFFFFF2000000119E896821FFFFFFF20000001193196712D
FFFFFF200000011FD6962AD3FFFFFF200000011E60962F90
FFFFFF20000001155396D5E3FFFFFF2000000117AD96D062
FFFFFF200000011F4796739EFFFFFF2000000114289642A7
FFFFFF20000001156A962155FFFFFF200000011A0E959003
FFFFFF20000001118195C1DBFFFFFF200000010D16962C89
FFFFFF200000011113962896FFFFFF200000011C2C95F734
FFFFFF20000001242695ACBEFFFFFF20000001298D95D654
FFFFFF20000001289F95E6F6FFFFFF2000000127809640BC
FFFFFF2000000122A096633CFFFFFF2000000123CD966659
FFFFFF2000000125B7964D6DFFFFFF20000001252E963E4B
FFFFFF200000012532961375FFFFFF2000000129B595DF2D
FFFFFF200000012A0D95CD20FFFFFF200000012F4895C840
FFFFFF20000001202895C1E9FFFFFF200000011A4495913A
FFFFFF2000000128E095A86CFFFFFF20000001221A95DAE0
FFFFFF2000000109B2961E66FFFFFF20000001157C964A5B
FFFFFF200000010E329622A5FFFFFF200000010FC3961909
FFFFFF200000011B0F95B89FFFFFFF2000000118AC95A6B3
FFFFFF20000001146D95ED90FFFFFF20000001157795F4FE
FFFFFF2000000116A895E22BFFFFFF20000001102D95D2AF
FFFFFF2000000110B195D4EFFFFFFF2000000111A795FD9F
FFFFFF20000001023196DAA1FFFFFF2000000106DB96E0FE
FFFFFF200000010CC096A67CFFFFFF200000010CDA969BB5
FFFFFF200000010AE8969B16FFFFFF2000000112A396ADD8
FFFFFF200000010EF8968DC8FFFFFF2000000112C3968DA1
FFFFFF200000010FF8969470FFFFFF20000001102B96ADD4
FFFFFF200000010A0996F9D1FFFFFF2000000102A6972015
FFFFFF2000000108EB9751A5FFFFFF2000000105F096D60F
FFFFFF20000001047B975753FFFFFF20000000FF2C971473
FFFFFF2000000103AE970A32FFFFFF20000001039F96BF4A
FFFFFF20000001092096D367FFFFFF20000001050B9697D6
FFFFFF200000010397969A57FFFFFF2000000104B09656A9
FFFFFF200000010854968D24FFFFFF200000010979969732
FFFFFF2000000105FC966839FFFFFF20000001073D965D71
FFFFFF2000000112FA9649E9FFFFFF200000010DE896416A
FFFFFF200000011211962F23FFFFFF200000010E61960BF6
FFFFFF20000001121B9666B1FFFFFF200000010363967CD3
FFFFFF20000001068F96E636FFFFFF2000000108B496C3FA
FFFFFF200000010B1496D081FFFFFF20000001015796B350
FFFFFF200000010AFF968F7FFFFFFF200000010CF796D0E1
FFFFFF20000000FF7096C025FFFFFF20000000FC8D96FD67
FFFFFF20000000FE56970891FFFFFF20000000FDD096CA6E
FFFFFF2000000101DA970976FFFFFF20000000FF3196ECDE
FFFFFF20000000FEC196B5E2FFFFFF20000000FF619681D4
FFFFFF2000000101EF968A1EFFFFFF20000001025A96936D
FFFFFF20000001025F96D4D6FFFFFF20000001039C96A745
FFFFFF2000000101C896ACD4FFFFFF2000000108AE962F5E
FFFFFF20000001012F962968FFFFFF200000010CA49665AD
FFFFFF2000000102319649B3FFFFFF2000000102809698EF
FFFFFF2000000104ED96C9F8FFFFFF20000001074D962E49
FFFFFF200000010B1B963443FFFFFF200000010AB5965323
FFFFFF200000010756964DBBFFFFFF2000000107F39659C5
FFFFFF2000000108B396A8C1FFFFFF20000000FD8396FC2D
FFFFFF2000000100D096EA0DFFFFFF20000001079E9731A3
FFFFFF20000000FAE8972E4CFFFFFF20000000FD5E976DB7
FFFFFF20000001032C97540DFFFFFF20000001014697323C
FFFFFF20000000FCCF9707C6FFFFFF20000001042B970B48
FFFFFF200000010A64970B22FFFFFF2000000105D3970275
FFFFFF200000010AEA971189FFFFFF200000010AFE9710F3
FFFFFF20000001038896CBE3FFFFFF20000001066B96CE3A
FFFFFF20000001029F96A754FFFFFF2000000106AD96C05C
FFFFFF20000000FEFA96B332FFFFFF20000001026A96A92C
FFFFFF20000001057196B83DFFFFFF20000001081796D1E3
FFFFFF20000000FB6796CBE1FFFFFF20000000FB6B96F62D
FFFFFF2000000104C5975059FFFFFF20000000FE2296D38D
FFFFFF20000000FAA196C9F0FFFFFF20000000FD1796BBA3
FFFFFF2000000103C196ECEAFFFFFF20000000EFEB97F535
FFFFFF20000000FA3E971C2AFFFFFF20000000F47D984A6D
FFFFFF20000000F9BE978AEBFFFFFF200000010004971AF0
FFFFFF20000000F84297BE55FFFFFF20000000F41998029F
FFFFFF20000000F49F9834D9FFFFFF20000000F1AA97F8FE
FFFFFF2000000102A1974B9AFFFFFF20000000F3E298321C
FFFFFF20000000F48797A3C8FFFFFF20000000F19797A0CC
FFFFFF20000000F6FE97B550FFFFFF20000000FDCE9799EF
FFFFFF200000010214979EA4FFFFFF20000001056497C840
FFFFFF200000010929977038FFFFFF200000010ABB97657D
FFFFFF2000000114FB976425FFFFFF200000010F5F974B4D
FFFFFF200000010E60976DF6FFFFFF200000010E12978064
FFFFFF20000000FA70981493FFFFFF20000001013297E3AF
FFFFFF20000001009897CFA1FFFFFF200000010274981588
FFFFFF20000000F58D97FCCEFFFFFF20000000F90997D87B
FFFFFF20000000FBAA97FC10FFFFFF20000001022F97F9DA
FFFFFF20000000FAF797F176FFFFFF20000000FA01980CC5
FFFFFF20000000EFAE984F83FFFFFF20000000F6F8982CE2
FFFFFF20000000F70C981B2FFFFFFF20000000F14A984651
FFFFFF20000000EFDC9860DEFFFFFF20000000F20397ED71
FFFFFF20000000FC2597FD50FFFFFF20000000F326977944
FFFFFF20000000FAE5978996FFFFFF20000000F17D981E39
FFFFFF20000000E8C89886D7FFFFFF20000000F4C498653F
FFFFFF20000000EAC199481BFFFFFF20000000E74B99C21B
FFFFFF20000000E56D9A33BCFFFFFF20000000E57A99F762
FFFFFF20000000E5119A16FDFFFFFF20000000E07C99EF18
FFFFFF20000000E5AB9996B6FFFFFF20000000E780993F15
FFFFFF20000000E8BC991BE6FFFFFF20000000EBB1991255
FFFFFF20000000EAD3991295FFFFFF20000000E9AF99106F
FFFFFF20000000EC7A990E32FFFFFF20000000E83598FAC0
FFFFFF20000000EAA798E6E9FFFFFF20000000EE2D98A73B
FFFFFF20000000EC9E98664DFFFFFF20000000E5059896E9
FFFFFF20000000E71798D697FFFFFF20000000F271992CF2
FFFFFF20000000E3D199681DFFFFFF20000000E2E498F732
FFFFFF20000000E6B8992D87FFFFFF20000000E4ED99550B
FFFFFF20000000EACA99844BFFFFFF20000000E8E1993AFD
FFFFFF20000000E7B4992E5BFFFFFF20000000E7E2994D85
FFFFFF20000000EE14996B54FFFFFF20000000E836996C39
FFFFFF20000000E5CC9933B5FFFFFF20000000EFFC9943E9
FFFFFF20000000EA32990111FFFFFF20000000F32898F768
FFFFFF20000000E9E798CF11FFFFFF20000000E9A598B9EA
FFFFFF20000000E66898FCA8FFFFFF20000000EAF59910D1
FFFFFF20000000E21B9A06C8FFFFFF20000000E1E99A6300
FFFFFF20000000DD969A4CB9FFFFFF20000000E2FC9A6994
FFFFFF20000000DB8A99DB4CFFFFFF20000000E5229A2EF0
FFFFFF20000000E1779A0586FFFFFF20000000E2B19A02C6
FFFFFF20000000DEFA9A342DFFFFFF20000000E1AC9A53EA
FFFFFF20000000E5BD9A21BBFFFFFF20000000E5129A3465
FFFFFF20000000EB7A9A5993FFFFFF20000000E7F99A26C0
FFFFFF20000000E08D9A4090FFFFFF20000000E2F99A1B34
FFFFFF20000000ED889A22B9FFFFFF20000000E8DC9A1086
FFFFFF20000000EACC9A0DC2FFFFFF20000000EA599A0664
FFFFFF20000000E5949A434BFFFFFF20000000E2DD9A4C6F
FFFFFF20000000EB089A8F34FFFFFF20000000DDD49A920B
FFFFFF20000000E9129A9F5BFFFFFF20000000DDDC9A7413
FFFFFF20000000DCB59A9DE9FFFFFF20000000E6579AE18C
FFFFFF20000000E8A89AC740FFFFFF20000000DEDE9AC1E2
FFFFFF20000000DC5C9AF234FFFFFF20000000E9299AD4A7
FFFFFF20000000E6DF9AAB4BFFFFFF20000000DF609AFA8B
FFFFFF20000000DE939AA453FFFFFF20000000DD069A92BF
FFFFFF20000000DFE49B4A54FFFFFF20000000D9AD9B8F73
FFFFFF20000000DE269BDAF3FFFFFF20000000E0DB9BAD05
FFFFFF20000000DA479B870AFFFFFF20000000DD819B7072
FFFFFF20000000DD029B15ECFFFFFF20000000DAE09B5DC2
FFFFFF20000000DBD29B2BB8FFFFFF20000000D64A9B3226
FFFFFF20000000D8AE9B9674FFFFFF20000000D8E99B87C3
FFFFFF20000000DC059B6DCBFFFFFF20000000D8C09B5517
FFFFFF20000000D90F9B70E2FFFFFF20000000D6D59BA65B
FFFFFF20000000D59F9B8135FFFFFF20000000E20B9B5B0C
FFFFFF20000000D3309B8F84FFFFFF20000000D1B09B929E
FFFFFF20000000D6589B925CFFFFFF20000000CDCB9B66A1
FFFFFF20000000CB1B9B658FFFFFFF20000000D6519B6851
FFFFFF20000000D3FE9B7882FFFFFF20000000D7C39B796A
FFFFFF20000000D3969BA0BAFFFFFF20000000D71F9BBF53
FFFFFF20000000CE319C0C30FFFFFF20000000D0469BF935
FFFFFF20000000CE289BF91BFFFFFF20000000D4A59C37AA
FFFFFF20000000CF169BF3ACFFFFFF20000000D5569BF521
FFFFFF20000000D5CE9BE1D1FFFFFF20000000D2219BECC5
FFFFFF20000000D07A9C066CFFFFFF20000000D1AE9C4CA9
FFFFFF20000000D9779C3C39FFFFFF20000000D4D59C7C89
FFFFFF20000000DCE09C83AAFFFFFF20000000D2F69C6CCC
FFFFFF20000000DB7D9C47C5FFFFFF20000000D8F09C419E
FFFFFF20000000D4BB9C82FDFFFFFF20000000DA429C8598
FFFFFF20000000D4A59C3498FFFFFF20000000D5B49C6420
FFFFFF20000000D8B19C708FFFFFFF20000000D2F69CADB1
FFFFFF20000000D52D9C99FBFFFFFF20000000D0B19C7331
FFFFFF20000000D5AF9CACE2FFFFFF20000000DAE39C958E
FFFFFF20000000D2DC9CBD1BFFFFFF20000000CC779CD1E6
FFFFFF20000000D2449CDF60FFFFFF20000000D5FD9CD686
FFFFFF20000000D5439CBBA7FFFFFF20000000CCF19CE5C6
FFFFFF20000000D7D89CD4D6FFFFFF20000000D8C99CC6D1
FFFFFF20000000D3119CD852FFFFFF20000000D29B9D1A54
FFFFFF20000000D2759D25A7FFFFFF20000000D1A09D1430
FFFFFF20000000D0BB9D1389FFFFFF20000000D1A99CF9AD
FFFFFF20000000D6E79D3A50FFFFFF20000000D7639D3FE1
FFFFFF20000000DA179D408EFFFFFF20000000CEDA9D4792
FFFFFF20000000CD569D55DAFFFFFF20000000D2329D5EAE
FFFFFF20000000D1899D6500FFFFFF20000000DD9F9D6158
FFFFFF20000000DD3E9D62C6FFFFFF20000000DD7E9D708D
FFFFFF20000000DEB29D804AFFFFFF20000000D2B09D8DFA
FFFFFF20000000D69C9D9806FFFFFF20000000CFDD9DA7C7
FFFFFF20000000D56F9DA912FFFFFF20000000CBBB9DD791
FFFFFF20000000CE499DE349FFFFFF20000000D5509DCBEF
FFFFFF20000000CC649DF8D9FFFFFF20000000D1BA9DEC5C
FFFFFF20000000D20F9DE927FFFFFF20000000CC189E116C
FFFFFF20000000CB389E198EFFFFFF20000000D1C19E08CC
FFFFFF20000000D2169DF10CFFFFFF20000000D2989DF952
FFFFFF20000000CF7C9E060AFFFFFF20000000D0259DF556
FFFFFF20000000D0899E0C4FFFFFFF20000000D1159E0E9C
FFFFFF20000000CCA99E0DF7FFFFFF20000000D2319DF8B3
FFFFFF20000000D1DF9DF81CFFFFFF20000000D0229E13B9
FFFFFF20000000D3C29E10DCFFFFFF20000000DF199E0383
FFFFFF20000000D52F9DEBACFFFFFF20000000D31D9DF0CE
FFFFFF20000000D58D9DD9C3FFFFFF20000000DC339DE7C1
FFFFFF20000000DDC19DE872FFFFFF20000000DA6B9DF9D6
FFFFFF20000000D8C49E05B2FFFFFF20000000DA829E0437
FFFFFF20000000E13B9E0504FFFFFF20000000E6879DF8DD
FFFFFF20000000E79B9DFA07FFFFFF20000000DF189DFD92
FFFFFF20000000E4159DF60EFFFFFF20000000EB369DF5C0
FFFFFF20000000E1F79DF7C2FFFFFF20000000E1719DF95A
FFFFFF20000000EBF59E05F3FFFFFF20000000F1879E0BD6
FFFFFF20000000DA429E0F65FFFFFF20000000D54B9E261D
FFFFFF20000000D7B19E341DFFFFFF20000000D8FF9E1526
FFFFFF20000000EB879E0A4DFFFFFF20000000DC669E24D1
FFFFFF20000000DE4E9E40A2FFFFFF20000000E52F9E35FF
FFFFFF20000000D9619E6128FFFFFF20000000D5749E7103
FFFFFF20000000D87C9E74A8FFFFFF20000000D6A99E6A7A
FFFFFF20000000D7749E6375FFFFFF20000000D85D9E6D4F
FFFFFF20000000D82A9E71A7FFFFFF20000000E59B9E513A
FFFFFF20000000F5029E2C9FFFFFFF20000000EB6D9E4769
FFFFFF20000000F6A49E36F0FFFFFF2000000107A69DC0A0
FFFFFF20000000FD319DE546FFFFFF20000000FB609DF97B
FFFFFF20000000F63B9E01D7FFFFFF20000000F3DF9E0971
FFFFFF20000000F5A59E0C9FFFFFFF20000000F1C39E1736
FFFFFF20000000E7709E3209FFFFFF20000000E6649E22D3
FFFFFF20000000E1ED9E3105FFFFFF20000000DFE59E451F
FFFFFF20000000E1019E4928FFFFFF20000000E56A9E68BD
FFFFFF20000000E13D9E75FDFFFFFF20000000DD079E823E
FFFFFF20000000DA349EA823FFFFFF20000000D70C9EB9E2
FFFFFF20000000D41F9EB9BFFFFFFF20000000D5779EC346
FFFFFF20000000D8ED9EC819FFFFFF20000000D5569ECF67
FFFFFF20000000D5B89EB182FFFFFF20000000D1A09EADCA
FFFFFF20000000D4919EAF40FFFFFF20000000D3C39EB749
FFFFFF20000000D7209EB704FFFFFF20000000D4F49EBC31
FFFFFF20000000D3869EC189FFFFFF20000000D7D89EBEDD
FFFFFF20000000D53C9EC661FFFFFF20000000DA8D9EC87C
FFFFFF20000000D7E99ECA6EFFFFFF20000000D38A9ECE43
FFFFFF20000000D3389ED21AFFFFFF20000000DAE59ED0BB
FFFFFF20000000D2569ED6CBFFFFFF20000000D12A9EDADD
FFFFFF20000000DC919ECDE3FFFFFF20000000DEDE9EC05A
FFFFFF20000000E1ED9EC0C5FFFFFF20000000DE709EC5A0
FFFFFF20000000DA719ECAB1FFFFFF20000000DEFD9ECF61
FFFFFF20000000E36C9ECC9AFFFFFF20000000DE129ED25F
FFFFFF20000000DDE59ED601FFFFFF20000000E5809ED3FE
FFFFFF20000000E1099ED6BFFFFFFF20000000DE609EE907
FFFFFF20000000DF189EEA1EFFFFFF20000000E4459EFEDB
FFFFFF20000000D5109F2B41FFFFFF20000000DDDE9F49CC
FFFFFF20000000D35F9F4498FFFFFF20000000CF989F4FC5
FFFFFF20000000D47A9F28EBFFFFFF20000000D49A9F2725
FFFFFF20000000D1DB9F2406FFFFFF20000000CE6D9F4C98
FFFFFF20000000CC3E9F6E83FFFFFF20000000D4C89F5AFA
FFFFFF20000000D9BA9F2B79FFFFFF20000000D7F89F2436
FFFFFF20000000D6569F4B6AFFFFFF20000000D5119F32C7
FFFFFF20000000D7BD9F5185FFFFFF20000000DAEB9F27AB
FFFFFF20000000D7DD9F505DFFFFFF20000000D5DD9F62A7
FFFFFF20000000D76B9F6249FFFFFF20000000D65C9F66CA
FFFFFF20000000D8F09F4797FFFFFF20000000DB489F2BB9
FFFFFF20000000DB6D9F16C0FFFFFF20000000DF0D9EF91C
FFFFFF20000000E0C79EEC60FFFFFF20000000D96A9F0959
FFFFFF20000000D8059F08A7FFFFFF20000000DC709EF653
FFFFFF20000000D47F9F371AFFFFFF20000000D5FB9F2D4D
FFFFFF20000000D5719F395AFFFFFF20000000D6819F5A7C
FFFFFF20000000D7859F5FFEFFFFFF20000000D2099F5C0A
FFFFFF20000000D2699F5F1FFFFFFF20000000D0E99F5420
FFFFFF20000000D36D9F7723FFFFFF20000000D4509F83A5
FFFFFF20000000D2FF9F855DFFFFFF20000000D24E9F844E
FFFFFF20000000D7A39F660EFFFFFF20000000D8A99F64AE
FFFFFF20000000DC099F5E48FFFFFF20000000DD649F4C55
FFFFFF20000000DBC49F49CAFFFFFF20000000DF6B9F496E
FFFFFF20000000DB689F4AE3FFFFFF20000000DC7E9F4CD5
FFFFFF20000000DBF69F5305FFFFFF20000000DCA99F534D
FFFFFF20000000DEE79F4CBBFFFFFF20000000DF749F5791
FFFFFF20000000DED09F42DFFFFFFF20000000DBCA9F610E
FFFFFF20000000DD739F731FFFFFFF20000000E1689F6A53
FFFFFF20000000DD5C9F79D2FFFFFF20000000DF5C9F74C0
FFFFFF20000000DD8A9F7952FFFFFF20000000E0B29F7B50
FFFFFF20000000E18A9F76EBFFFFFF20000000DE549F7CC4
FFFFFF20000000E2809F7A5EFFFFFF20000003BED69F6A45
FFFFFF20000003651B9EDB2AFFFFFF2000000E8EEF9ECF5C
FFFFFF20000006FFFA9F16C1FFFFFF20000003C5F99F06F4
FFFFFF200000057B529F1DD9FFFFFF2000000321AA9F4F18
FFFFFF200000033E1B9F2611FFFFFF200000047A489F2B01
FFFFFF200000053D359F2A82FFFFFF20000008B97E9F1037
FFFFFF20000009A6D29EDDEEFFFFFF20000007E0199F0D3D
FFFFFF2000000C6D169EF151FFFFFF2000001100B09E8BDB
FFFFFF200000084D409EDACFFFFFFF200000053FD19F212E
FFFFFF2000000A0CE39EEFFFFFFFFF20000006015D9EF6EA
FFFFFF2000000A55109F0690FFFFFF2000000C22F19EC241
FFFFFF2000000C97A49E4245FFFFFF2000000EC8EC9E6842
FFFFFF2000000DF51F9E3880FFFFFF2000001829949E624A
FFFFFF2000002515499E0E9FFFFFFF2000001F8F789E53DB
FFFFFF2000001A9AB89E983EFFFFFF2000001ED53B9E5107
FFFFFF20000018E6059E6E01FFFFFF2000001BA4909E785F
FFFFFF2000001555769EADB4FFFFFF20000016B5A69E8FDF
FFFFFF20000015091F9E98D6FFFFFF2000001880019E7956
FFFFFF200000113CBA9EF40AFFFFFF200000138AB39E8E5E
FFFFFF200000138F619EB908FFFFFF20000014635F9ED412
FFFFFF20000011C7E29EBFC4FFFFFF200000143E3D9EC2E0
FFFFFF200000085F679F44A4FFFFFF2000000DA7F59EE5A6
FFFFFF2000001440679E11F5FFFFFF2000002A36A49DDBF9
FFFFFF20000019AE269DF535FFFFFF2000001127339E7C62
FFFFFF2000000DBABB9E8772FFFFFF2000000D0BCB9F5EFC
FFFFFF20000012E5A29F082DFFFFFF2000002094309E6B84
FFFFFF20000011640D9F0D79FFFFFF2000000BF47C9F599F
FFFFFF2000000D50DD9F573EFFFFFF2000000C9A439F46FD
FFFFFF20000010638E9F11A7FFFFFF2000000C98A79F2B80
FFFFFF2000001349BC9EDC02FFFFFF2000001468B79ED28C
FFFFFF20000017EC269E9259FFFFFF20000009B46C9F4533
FFFFFF2000000B8D499F2F99FFFFFF200000129EDF9F0083
FFFFFF20000013E7029EDD8CFFFFFF200000181B0B9EB1E8
FFFFFF2000000F19FE9F216AFFFFFF200000154C899EB42B
FFFFFF2000001C1A1B9E7EF7FFFFFF2000001B64E69E7813
FFFFFF2000001FEB249E9D79FFFFFF20000022849A9E9069
FFFFFF2000001FCDB39EA68AFFFFFF200000269D849E7041
FFFFFF2000002873C79E6760FFFFFF2000002732849E6A42
FFFFFF20000025D9409E6C85FFFFFF20000026322D9E68E5
FFFFFF20000025239D9E6BEFFFFFFF20000026BE019E66C4
FFFFFF2000002763CE9E6128FFFFFF200000275CF09E608A
FFFFFF20000025E2759E6FC8FFFFFF2000002218519E8608
FFFFFF20000022DF8D9E8A0AFFFFFF2000002422BD9E818E
FFFFFF20000023CC3E9E7D5AFFFFFF20000021C1099E692E
FFFFFF2000002188A09E6B5BFFFFFF2000002239FC9E6C0A
FFFFFF2000002638E49E4E88FFFFFF2000002C85C49E3564
FFFFFF200000322BB59E04E1FFFFFF2000002D2E4E9E39FE
FFFFFF200000357ED89DFC9FFFFFFF2000003EAB749DB9A0
FFFFFF2000002E256A9E3031FFFFFF20000036D6529E080C
FFFFFF2000003FC5289DA801FFFFFF2000002F87CB9E28F9
FFFFFF200000345FF49E0EC2FFFFFF200000336EB09DF398
FFFFFF2000002890819E569CFFFFFF2000002BBDC99E3C72
FFFFFF2000002E9CBD9E30DCFFFFFF2000002F6E8A9E295C
FFFFFF2000003B4D769DD294FFFFFF200000344FFD9E013E
FFFFFF200000327ACB9E1D37FFFFFF20000039DD929DD508
FFFFFF200000354FD89DFA11FFFFFF2000002F16599E3067
FFFFFF2000003A2A119DDBBCFFFFFF200000317C469E3E79
FFFFFF2000002C817B9E55F6FFFFFF2000003096039E173C
FFFFFF2000002F95609E3518FFFFFF2000002DE28A9E3383
FFFFFF200000367E339DFF43FFFFFF2000002A98A79E544C
FFFFFF200000312C2A9E20CFFFFFFF2000002CFCC89E3BE1
FFFFFF2000003A1A2D9DE89BFFFFFF2000002EAAE79E261E
FFFFFF2000003525BD9E17B6FFFFFF20000035327B9E0DA5
FFFFFF2000002C0F7F9E516BFFFFFF2000003656A49DFF81
FFFFFF2000003A74819DDE8AFFFFFF20000034A6C79E101B
FFFFFF2000003707C49E06E6FFFFFF20000037E6649E002F
FFFFFF2000003917989DF715FFFFFF20000039ADC19DEE68
FFFFFF2000003AA7889DE533FFFFFF20000039327D9DEB1C
FFFFFF2000003AB1E59DDE32FFFFFF200000353E5F9E0C09
FFFFFF2000003AC58E9DE565FFFFFF2000003B38B19DDBDC
FFFFFF2000003BBF6C9DF66BFFFFFF2000003BCDF29E023B
FFFFFF2000003CB6E09DECC9FFFFFF2000003C572F9DECB1
FFFFFF2000003D7EC89DE1C5FFFFFF2000003DE2BA9DDF32
FFFFFF2000003E94B19DE88EFFFFFF2000003E157B9DE9B4
FFFFFF2000003EFA3D9DDE55FFFFFF2000003F52799DDB5D
FFFFFF2000003E543E9DE205FFFFFF2000003D6A6B9DEF0D
FFFFFF2000004034589DD498FFFFFF200000405FBE9DD52C
FFFFFF2000003FC6B79DD8A3FFFFFF2000003EE1139DE928
FFFFFF200000399FA09E21CDFFFFFF2000003D2BA89DF2D5
FFFFFF2000003DC1169DF3D1FFFFFF2000003B26F39DF92D
FFFFFF2000003C93569DF0E0FFFFFF2000003D0CA09DDB18
FFFFFF20000040D9E19DD323FFFFFF20000040C76F9DCAAE
FFFFFF2000003E905D9DDED6FFFFFF2000004142759DCDDD
FFFFFF2000004116BC9DD00AFFFFFF200000442BFC9DC1C7
FFFFFF20000044DCF69DB116FFFFFF20000042D64E9DC302
FFFFFF2000004405459DBD4AFFFFFF20000041178B9DD7AE
FFFFFF20000043A1319DC5F2FFFFFF20000044AFB49DBBFA
FFFFFF2000004311ED9DBBE3FFFFFF20000041C3FA9DBF46
FFFFFF2000004124D29DD034FFFFFF2000004085269DD0F7
FFFFFF2000003DB21D9DCEB4FFFFFF200000439B0C9DC133
FFFFFF20000040450D9DD831FFFFFF200000438CC49DCA0D
FFFFFF2000004037E09DE27BFFFFFF20000043C05B9DBF1C
FFFFFF2000003ED7959DE5FEFFFFFF2000003F03169DF06F
FFFFFF20000040F8E59DDDE3FFFFFF2000003BF4939E0C11
FFFFFF2000003DEF9C9E0A39FFFFFF2000003F65339DE872
FFFFFF20000042AD859DCA9EFFFFFF2000003F4C939DEA02
FFFFFF2000003BA4BF9DF4EFFFFFFF2000003ABDC89E10D1
FFFFFF2000003B926B9E15C1FFFFFF2000003FF0DC9DEAC4
FFFFFF2000003CD0179E0648FFFFFF2000003AC6759E19F4
FFFFFF2000003FF6809DEC16FFFFFF2000003E05E09DFA1F
FFFFFF2000003DC25F9E1293FFFFFF2000004088D99DF987
FFFFFF2000004263119DCBC4FFFFFF2000003AFEAB9E177A
FFFFFF2000003ED98A9DF422FFFFFF2000004091819DE9EB
FFFFFF2000004116B39DF2AEFFFFFF20000040B0879E00D4
FFFFFF2000003F3F039DEDE7FFFFFF20000039B3939E3263
FFFFFF2000003BF0ED9E1E22FFFFFF2000003D10569E1333
FFFFFF20000039C4D79E241EFFFFFF2000003D6E359E1AB4
FFFFFF2000003EE5039E1557FFFFFF2000003E23A59E1BF0
FFFFFF2000003F34689E05F0FFFFFF2000003AAC5F9E2812
FFFFFF2000003DDFEB9E105DFFFFFF2000003C73E69E1B84
FFFFFF2000003E5F1F9E1C3EFFFFFF2000003DB31F9E1E30
FFFFFF2000003865C09E47FBFFFFFF2000003C7BC49E23FF
FFFFFF2000003BB2149E2343FFFFFF2000003D98069E1AA7
FFFFFF2000003BC5929E282DFFFFFF2000003C58CF9E2015
FFFFFF2000003B59D89E2A2BFFFFFF2000003E8F329E0EAE
FFFFFF2000003EC19C9E1168FFFFFF20000041844B9E18E1
FFFFFF200000430B8E9E05AFFFFFFF2000004354CB9E0BEB
FFFFFF2000004204B49E15DEFFFFFF2000004209BF9E0FC8
FFFFFF2000004049E39E17C5FFFFFF2000003FAFA29E1FD7
FFFFFF20000042B0639E08A4FFFFFF20000041C0429E1106
FFFFFF2000004109559E1F88FFFFFF2000003ED2F29E2A69
FFFFFF2000003A2DE99E6F36FFFFFF20000038D7199E764D
FFFFFF2000003CA0F39E3F06FFFFFF2000003E80E49E3DAB
FFFFFF2000003F62ED9E3879FFFFFF2000003E6EC79E3C7D
FFFFFF2000003ED53C9E3C91FFFFFF2000003E36DD9E3DEC
FFFFFF2000003FD8859E28DDFFFFFF2000004064399E1B1F
FFFFFF20000041A0F19E1694FFFFFF20000041A6519E17B5
FFFFFF200000418C9B9E13D6FFFFFF2000004129C79E1BDF
FFFFFF20000040D0779E1AC1FFFFFF200000416D4E9E175F
FFFFFF2000003EF07B9E2618FFFFFF2000003F8AAF9E2C20
FFFFFF20000040C6519E18ADFFFFFF20000040DB479E229B
FFFFFF2000003DF4749E372AFFFFFF2000003FC6039E2070
FFFFFF2000003DE4FF9E261BFFFFFF2000003E54E09E2497
FFFFFF2000003D25BE9E2BBBFFFFFF2000003C87419E38BE
FFFFFF2000003F315F9E24A7FFFFFF2000003C2EC79E2F15
FFFFFF20000041024C9E1BB7FFFFFF2000004161B59E1C3B
FFFFFF2000004034A19E2270FFFFFF200000409A149E2359
FFFFFF2000004058A39E2688FFFFFF20000040F90A9E1D6C
FFFFFF2000003FCEAE9E347CFFFFFF2000004169439E1F43
FFFFFF20000040BF069E2853FFFFFF2000003DF2269E4906
FFFFFF200000404D3B9E29A7FFFFFF2000003F91DA9E327E
FFFFFF2000003EFE179E3930FFFFFF2000003E1CAD9E4819
FFFFFF2000003E0A899E4679FFFFFF200000400BA69E3413
FFFFFF2000003F92249E35CCFFFFFF2000003DF9259E47ED
FFFFFF2000003D8BF89E5174FFFFFF2000003E6A419E56DD
FFFFFF2000003DA13C9E6057FFFFFF2000003F7A9D9E3C8C
FFFFFF2000003C9CDB9E56E7FFFFFF2000003C9D469E5CEA
FFFFFF2000003C7ADE9E595DFFFFFF2000003CB7E99E5ADD
FFFFFF2000003E340A9E468FFFFFFF2000003F78949E3A96
FFFFFF2000003F4C119E3912FFFFFF2000003D4E8A9E547A
FFFFFF2000003D0E549E556DFFFFFF2000003D1F239E5DA9
FFFFFF2000003E04409E519FFFFFFF2000003E503C9E4E3D
FFFFFF2000003DFA6B9E58BAFFFFFF2000003CC5ED9E5DF0
FFFFFF2000003F16A39E3E7DFFFFFF2000003CC54F9E55ED
FFFFFF2000003D95D99E46E1FFFFFF2000003DCFA89E52E6
FFFFFF2000003D9B339E52BCFFFFFF2000003E32929E50A7
FFFFFF2000003D717D9E569BFFFFFF2000003F33E79E40CC
FFFFFF2000003E70379E4B3BFFFFFF2000003E561F9E40E2
FFFFFF2000003C173C9E55B2FFFFFF2000003AF8369E5963
FFFFFF2000003B37F29E518CFFFFFF2000003D96649E517F
FFFFFF2000003F22CE9E3B3EFFFFFF2000003E6B4B9E472F
FFFFFF2000003DA4B09E54F4FFFFFF2000003DE6529E4F1E
FFFFFF2000003BC5889E75D9FFFFFF2000003E87289E4984
FFFFFF2000003EFFDA9E428EFFFFFF2000003E9D329E4674
FFFFFF2000003D8F339E52E0FFFFFF2000003C4A6D9E5659
FFFFFF2000003C85E59E552BFFFFFF2000003B2A299E6BA6
FFFFFF2000003CBD699E5BD4FFFFFF2000003D17E69E555D
FFFFFF2000003A3C359E7929FFFFFF20000038FC349E75DB
FFFFFF20000036ED979E9EC3FFFFFF2000003BD25A9E7ADA
FFFFFF2000003D8E0A9E4C3DFFFFFF2000003C8C4C9E5AFE
FFFFFF2000003CB9939E510EFFFFFF2000003B3BA69E513E
FFFFFF2000003E04489E4C51FFFFFF2000003CB9179E59EC
FFFFFF2000003E0A769E4CA3FFFFFF2000003DF2259E4A4E
FFFFFF2000003E16A39E50EAFFFFFF2000003E0C349E495E
FFFFFF2000003E30B99E49EDFFFFFF2000003D90A89E58EE
FFFFFF2000003CFF2D9E61E1FFFFFF2000003CB5A49E5B55
FFFFFF2000003CFA379E5F59FFFFFF2000003D7A299E53E2
FFFFFF2000003AB3A19E861BFFFFFF2000003DA8689E59F0
FFFFFF2000003E2C8C9E5125FFFFFF2000003DDC389E4CE6
FFFFFF2000003DB9929E50C5FFFFFF2000003DB8019E4EC1
FFFFFF2000003C7F939E6DB5FFFFFF2000003B12DD9E81F2
FFFFFF2000003CD1279E63A6FFFFFF2000003A64179E8414
FFFFFF2000003871499EAD07FFFFFF20000038EBDD9EA186
FFFFFF2000003A64EE9E87C5FFFFFF2000003BEA269E789C
FFFFFF2000003BE05F9E79ABFFFFFF2000003998F79E95DC
FFFFFF200000365D379EB090FFFFFF2000003817CA9EA26B
FFFFFF2000003AE2959E745DFFFFFF2000003AB0EE9E852B
FFFFFF2000003C138D9E6A2AFFFFFF2000003C0BC29E6743
FFFFFF20000032AEE39EE2F0FFFFFF2000003B1A079E7FD9
FFFFFF2000003A5A699E8C5BFFFFFF2000003B03569E88E7
FFFFFF20000038A2C19EAF87FFFFFF2000003ACDB89E778C
FFFFFF2000003BDFC39E78DCFFFFFF2000003B5CA99E6CF9
FFFFFF2000003A2DD39E7FD3FFFFFF2000003B0ABB9E7088
FFFFFF2000003AF4469E6EE5FFFFFF20000039E29E9E8874
FFFFFF2000003900AB9E8BD3FFFFFF2000003BB5F39E6B81
FFFFFF2000003BEB679E68E7FFFFFF20000039F69D9E8477
FFFFFF2000003A56DB9E771CFFFFFF20000039D7C09E70E4
FFFFFF20000039CBDF9E8251FFFFFF2000003968B69E6C4A
FFFFFF2000003AAC679E68B0FFFFFF200000393FD29E6AD4
FFFFFF2000003BA33E9E691BFFFFFF20000039462D9E6A52
FFFFFF2000003886119E6B95FFFFFF200000389DB89E6E44
FFFFFF20000037CB169E8BF5FFFFFF20000037AE449E9D84
FFFFFF20000037DC229E92B2FFFFFF20000036698E9E6A93
FFFFFF2000003764999E8036FFFFFF20000037DD079E921B
FFFFFF20000036D3EB9E7016FFFFFF2000003917449E76BE
FFFFFF20000037CFD99EA8DAFFFFFF20000038BCDA9E9AFE
FFFFFF2000003755569E9818FFFFFF20000039097F9E82DA
FFFFFF200000385DB59E8E88FFFFFF20000038F4899E806D
FFFFFF200000380F5C9E861BFFFFFF200000372F129EAC3B
FFFFFF20000036BDFC9EB846FFFFFF20000036FAA69EAFE9
FFFFFF20000036A0899E86A2FFFFFF2000003360009E8834
FFFFFF200000365BA89EAD58FFFFFF2000003569CF9EC0FE
FFFFFF2000003395C49ECC7CFFFFFF200000352DAD9ECE88
FFFFFF200000332A4B9ED26AFFFFFF20000033CBB39EE213
FFFFFF2000003299E69EF420FFFFFF2000003460099ED63F
FFFFFF2000003170659EFDC1FFFFFF2000003259619F135A
FFFFFF2000003177029F0AE7FFFFFF2000002DE5739EC7C6
FFFFFF2000003463249EF2FEFFFFFF20000031A9379EECB6
FFFFFF2000002B38219EEADDFFFFFF2000002A08AA9EF4A2
FFFFFF2000002C7DF59EF45FFFFFFF200000290A229EFC8C
FFFFFF2000002725C69F9086FFFFFF2000002AC0CA9F49EB
FFFFFF2000002BBD149F81C1FFFFFF20000027D0069F64B0
FFFFFF20000029D75D9F9CA7FFFFFF200000220A4EA05986
FFFFFF2000002688389FEC98FFFFFF2000001F646BA05F6B
FFFFFF20000026AB829FA591FFFFFF2000001E0B70A076E0
FFFFFF200000207E709FBAA5FFFFFF2000001B8BCFA06813
FFFFFF2000001847E7A075C2FFFFFF2000001CABDB9FE4AF
FFFFFF20000013CF39A113B5FFFFFF2000001266E8A009FB
FFFFFF200000194EF5A07D2DFFFFFF2000001467B7A0EEF7
FFFFFF2000000EE2A2A1569DFFFFFF2000001683F4A10984
FFFFFF2000000FE713A0190FFFFFFF2000001140F0A088C9
FFFFFF20000015B249A1A8D5FFFFFF2000000FDCE0A191E1
FFFFFF200000103B0CA17B20FFFFFF2000000F91FCA14CA2
FFFFFF200000106936A099BAFFFFFF2000000F9ED5A0EAFA
FFFFFF200000070D66A13DD7FFFFFF2000000D7C7BA06E4B
FFFFFF20000008DD5EA0B7F3FFFFFF200000066B01A0A3D0
FFFFFF2000000A2EECA09D2EFFFFFF2000000B96C2A09372
FFFFFF2000000B2380A03070FFFFFF200000065494A0429A
FFFFFF20000010FBDBA094D8FFFFFF200000089790A0B59F
FFFFFF20000005AB60A1663CFFFFFF200000068F1FA0A03A
FFFFFF20000007D4F0A13D07FFFFFF20000005BCFBA1C907
FFFFFF200000053E56A1F23AFFFFFF2000000748CCA10959
FFFFFF20000005E48CA0D0FCFFFFFF2000000662ADA13D54
FFFFFF20000005C51CA0E587FFFFFF20000004B4B4A15B2F
FFFFFF200000044138A1DA3EFFFFFF20000005A26CA19226
FFFFFF20000004AFCFA1D9B3FFFFFF20000004A56BA18EA0
FFFFFF200000041943A1F8E9FFFFFF200000043D9AA1DEA9
FFFFFF200000040B9AA20663FFFFFF200000054F57A212AC
FFFFFF200000049CD7A19F9EFFFFFF2000000457CFA1F14E
FFFFFF2000000442BCA2A786FFFFFF2000000478D3A26913
FFFFFF200000045A81A220A8FFFFFF20000004195FA2299E
FFFFFF20000003DA13A260A8FFFFFF200000040EA0A2A5C7
FFFFFF200000048461A2CD2BFFFFFF2000000418BBA2D4DB
FFFFFF2000000419BDA2F10BFFFFFF20000004868EA28566
FFFFFF200000043AF8A2F62DFFFFFF200000045997A2EE35
FFFFFF200000043B7BA2F628FFFFFF200000041529A32824
FFFFFF20000003CA53A3150BFFFFFF200000052B28A32B04
FFFFFF20000003790AA328A6FFFFFF20000003CCA9A346C3
FFFFFF20000003E86CA31226FFFFFF2000000377E2A36A5F
FFFFFF20000004D359A33617FFFFFF20000003EFBFA36FFA
FFFFFF2000000419B7A35E4DFFFFFF20000003E04BA34F84
FFFFFF200000039767A3162BFFFFFF200000039E76A37319
FFFFFF20000003B0AFA366FFFFFFFF20000003F658A365E0
FFFFFF20000003E189A35A55FFFFFF200000045D7EA347EA
FFFFFF20000003999BA33326FFFFFF200000038EA2A34030
FFFFFF20000003E359A34E44FFFFFF20000003E6CCA34415
FFFFFF2000000412A7A371C7FFFFFF20000003E375A37B54
FFFFFF20000003F26CA356AAFFFFFF20000003B134A34C8E
FFFFFF20000003B174A35F73FFFFFF200000039561A359A8
FFFFFF200000039398A369BDFFFFFF200000039230A35BA0
FFFFFF20000003612CA366FFFFFFFF2000000428F4A35DF6
FFFFFF20000003D08AA363BEFFFFFF200000034455A3657B
FFFFFF2000000391F1A35871FFFFFF200000038ECAA35F17
FFFFFF200000039BF5A35148FFFFFF200000038BD2A35B08
FFFFFF200000036231A338C0FFFFFF200000037AF9A34688
FFFFFF20000004C1EBA33A8BFFFFFF200000035161A34955
FFFFFF20000003D391A35751FFFFFF20000003539EA35903
FFFFFF200000039CE4A3483CFFFFFF20000003654CA342A0
FFFFFF200000038295A34546FFFFFF200000038362A339B9
FFFFFF2000000347C4A3399EFFFFFF20000003B954A33556
FFFFFF20000003831EA3325FFFFFFF2000000349A1A33677
FFFFFF200000037AC6A33DE0FFFFFF200000035D73A32CD3
FFFFFF20000003358BA33950FFFFFF200000039481A320D3
FFFFFF20000003899EA31B42FFFFFF200000035585A32B28
FFFFFF200000036807A32B11FFFFFF20000003A419A32266
FFFFFF2000000342D4A32BDAFFFFFF20000003A267A3216E
FFFFFF20000003A643A31A28FFFFFF200000030CC8A31BDC
FFFFFF200000035C77A3192BFFFFFF2000000379BEA3193A
FFFFFF200000032223A312E3FFFFFF20000002D17CA31AD9
FFFFFF200000035A08A31549FFFFFF2000000320C4A3043D
FFFFFF200000032CD2A30788FFFFFF20000003533DA3093F
FFFFFF200000032EDAA2FC43FFFFFF200000032C9EA2FC22
FFFFFF2000000321A0A30657FFFFFF20000003995DA2F76E
FFFFFF2000000300F7A2EBA8FFFFFF200000032741A2F1E7
FFFFFF20000003636FA2E656FFFFFF20000002F210A2E5EF
FFFFFF200000031434A2DDC4FFFFFF2000000320B0A2E092
FFFFFF20000002F5E0A2D29DFFFFFF200000030D8AA2D550
FFFFFF20000002F301A2D5D6FFFFFF20000002E248A2C613
FFFFFF200000032283A2CB15FFFFFF200000035BF9A2C2AB
FFFFFF20000002C1AEA2BAEAFFFFFF2000000349C7A2B945
FFFFFF20000002EB24A2AF10FFFFFF2000000370B9A2A9DE
FFFFFF200000030B2FA2AE8CFFFFFF20000002E950A2A009
FFFFFF20000002EAABA2A6BCFFFFFF200000032AAEA29390
FFFFFF20000002E537A28E43FFFFFF20000002E9CFA29554
FFFFFF200000034E09A2841DFFFFFF200000030F25A28D97
FFFFFF2000000392F4A27F89FFFFFF20000002D3C1A27A08
FFFFFF20000002EAFBA27766FFFFFF20000002EE7AA27283
FFFFFF20000002CFDFA2644EFFFFFF20000002E1BDA26789
FFFFFF20000002F496A25FA1FFFFFF20000002EB26A2555C
FFFFFF20000002FC4BA24852FFFFFF20000002B5E6A25948
FFFFFF20000002B209A24C91FFFFFF20000002DBF9A24500
FFFFFF20000002AEF3A23F97FFFFFF200000029F50A22EAA
FFFFFF20000002C787A231B7FFFFFF20000002B29DA2236E
FFFFFF20000002F1E8A21898FFFFFF20000002AB81A21A6E
FFFFFF20000002AC32A213F2FFFFFF20000002DF49A202AF
FFFFFF20000002C144A203A9FFFFFF20000002E7ADA1F82C
FFFFFF20000002AECCA1F6A6FFFFFF20000002B55BA1EB5B
FFFFFF20000002A8E3A1E7D6FFFFFF200000027F42A1E3DD
FFFFFF20000002B86BA1DBD8FFFFFF200000028CCDA1D196
FFFFFF20000002C2D5A1C307FFFFFF200000027CD8A1C561
FFFFFF20000002B1C1A1C04CFFFFFF200000026C3EA1AD95
FFFFFF200000028547A1B40FFFFFFF20000002C8F7A1A772
FFFFFF20000002614EA19E77FFFFFF2000000256EDA1955F
FFFFFF200000024CC7A19516FFFFFF200000026DE9A189EB
FFFFFF20000002531BA18787FFFFFF200000020FE8A17F46
FFFFFF200000022A08A170BFFFFFFF2000000233D1A177B3
FFFFFF20000001D384A16B5DFFFFFF2000000244E9A15EA3
FFFFFF200000023E6DA157B7FFFFFF200000023D6EA14D4A
FFFFFF200000020E75A14946FFFFFF200000020DA4A13DB2
FFFFFF200000024B65A13074FFFFFF20000001D281A12281
FFFFFF20000001F11DA11EA1FFFFFF2000000209EEA11EF8
FFFFFF2000000214A5A11166FFFFFF200000020FD6A10D4B
FFFFFF200000021B80A10248FFFFFF200000020CBAA0F8DC
FFFFFF20000001EFA3A0E687FFFFFF200000020ACCA0DCB1
FFFFFF200000022055A0D743FFFFFF20000001F67AA0C7D3
FFFFFF20000001F519A0C578FFFFFF20000001E9CCA0B619
FFFFFF20000001F779A0A719FFFFFF20000001FE73A09E1B
FFFFFF200000021F20A09189FFFFFF20000001E0A5A08D6B
FFFFFF20000001C8B6A08294FFFFFF20000001C7CAA06D23
FFFFFF20000001FF44A0632FFFFFFF20000002074EA05E8A
FFFFFF20000001DE1EA05201FFFFFF20000001CC9CA04641
FFFFFF20000001C889A03994FFFFFF20000001EA3CA0361E
FFFFFF20000001C240A0231CFFFFFF200000026B27A01889
FFFFFF20000001F378A00BE0FFFFFF20000001E13EA005AA
FFFFFF20000001FD349FF55EFFFFFF20000001B8829FE81C
FFFFFF200000019E209FDCFBFFFFFF20000001AF759FDEE4
FFFFFF200000019A629FB9F1FFFFFF20000001A32D9FBBA5
FFFFFF20000001B73B9FB246FFFFFF20000001D51B9FA822
FFFFFF200000019DCD9FA778FFFFFF2000000191AB9FA137
FFFFFF200000018CD89F9278FFFFFF200000018DE89F7A53
FFFFFF200000018CD19F6C3AFFFFFF200000019C009F6473
FFFFFF20000001871A9F5CCBFFFFFF200000017EC99F4BBD
FFFFFF200000018D829F5D97FFFFFF200000018C6B9F4254
FFFFFF2000000177159F23A7FFFFFF200000018F869F26A7
FFFFFF20000001808E9F1962FFFFFF2000000177379F199C
FFFFFF20000001769A9F197BFFFFFF20000001672D9F0145
FFFFFF2000000163B89EE685FFFFFF200000016D2F9ED73B
FFFFFF200000015EE09EE74CFFFFFF200000017D7F9EE011
FFFFFF20000001613D9EB16BFFFFFF20000001722C9EE6C1
FFFFFF2000000161E59EB88AFFFFFF200000016C709EB8D6
FFFFFF200000015F2D9E9CDBFFFFFF20000001665A9E91FC
FFFFFF2000000160509E9068FFFFFF2000000165819E7D94
FFFFFF2000000165969E7CA3FFFFFF20000001585E9E3B06
FFFFFF2000000150F49E2C8AFFFFFF200000015C8A9E4261
FFFFFF200000015CB39E508AFFFFFF200000015E7C9E2DBC
FFFFFF200000015D1D9E1C98FFFFFF200000015FE39E1A8A
FFFFFF200000015B9A9E4888FFFFFF2000000159959E2471
FFFFFF200000015B7A9E22B4FFFFFF2000000157B59DF894
FFFFFF2000000150E89DC50EFFFFFF200000014DB99DCE6D
FFFFFF20000001537D9DDE9AFFFFFF20000001516E9DD78D
FFFFFF200000014F559DD9F1FFFFFF2000000159379DD1ED
FFFFFF2000000147799D85FFFFFFFF20000001520D9D9623
FFFFFF20000001525A9DB7FDFFFFFF2000000152579D8AC3
FFFFFF200000015A869D945EFFFFFF200000014FD19D9C28
FFFFFF2000000158DF9D5341FFFFFF20000001537D9D7B6B
FFFFFF2000000154EA9D5F61FFFFFF200000014CFA9D3E5E
FFFFFF2000000147589CFE94FFFFFF2000000158CC9D3F7B
FFFFFF200000014CCE9D1F89FFFFFF200000014BD79D5DE8
FFFFFF2000000151129D2C86FFFFFF200000014EFE9D1DFA
FFFFFF2000000152D99CF7E4FFFFFF200000014EA89D0121
FFFFFF20000001460E9CBF1AFFFFFF2000000158139CF718
FFFFFF2000000153689CDC35FFFFFF200000015CFC9CF7DA
FFFFFF200000015C0F9CB79CFFFFFF2000000155F99C9F53
FFFFFF200000015C7B9CA121FFFFFF20000001570C9C922E
FFFFFF2000000159FA9C82C9FFFFFF200000014FF69C5EFF
FFFFFF20000001526E9C9569FFFFFF200000014C089C9F54
FFFFFF2000000158AF9C80C3FFFFFF2000000156A79C714F
FFFFFF2000000151249C49ABFFFFFF20000001528B9C3F6B
FFFFFF200000015AE49C3FF5FFFFFF2000000154809C5B59
FFFFFF20000001547E9C6DBBFFFFFF2000000154B39C47F1
FFFFFF2000000159259C2520FFFFFF2000000158CD9C2818
FFFFFF200000014A3C9C5BE4FFFFFF20000001570B9C5347
FFFFFF2000000158CB9C7E40FFFFFF200000014C079C34B2
FFFFFF200000015A9B9C40A2FFFFFF2000000155E09BEAF2
FFFFFF2000000157689C320AFFFFFF2000000159D59C3151
FFFFFF2000000157E29C1D1FFFFFFF200000015AF39C128E
FFFFFF2000000151DA9BF29EFFFFFF20000001572C9BDBFA
FFFFFF2000000152419C04A8FFFFFF2000000148AF9BE846
FFFFFF20000001512C9BF759FFFFFF20000001508D9BFF7F
FFFFFF200000014C209BC6B3FFFFFF2000000152929C0350
FFFFFF200000014B659BD123FFFFFF200000013F039BE390
FFFFFF200000013FAB9BE537FFFFFF200000013C549BDE51
FFFFFF20000001402A9BE10DFFFFFF2000000143739BE892
FFFFFF2000000134F59BF5FDFFFFFF20000001407E9BDB4B
FFFFFF2000000134C79BEED8FFFFFF200000013E2A9BC30C
FFFFFF20000001402F9BC82CFFFFFF200000013B269BBDFD
FFFFFF200000013F599C2106FFFFFF2000000137619C00AA
FFFFFF2000000140739BD96EFFFFFF20000001317E9BC074
FFFFFF200000012F539BA608FFFFFF20000001368E9B8AC9
FFFFFF2000000145669BED3AFFFFFF2000000137EF9BBFFF
FFFFFF20000001390A9BB460FFFFFF2000000132889BC08A
FFFFFF20000001377E9B9142FFFFFF200000012B219BB947
FFFFFF200000012FFA9BAD21FFFFFF20000001342E9B923B
FFFFFF200000012DD19BA6C9FFFFFF2000000127AE9BA6E8
FFFFFF200000012BDB9B9AFCFFFFFF200000012DF29BDB6D
FFFFFF2000000129679BCC44FFFFFF2000000127059BCCDD
FFFFFF2000000122189BA0FFFFFFFF2000000127539BA6B8
FFFFFF2000000133379BC158FFFFFF20000001242F9BA9A8
FFFFFF200000012A609B8E27FFFFFF200000012E539BAF3D
FFFFFF200000012C5C9B92BBFFFFFF2000000127819B7798
FFFFFF200000012E989BB064FFFFFF2000000129B69B812D
FFFFFF20000001203E9B82B9FFFFFF2000000127869B99D0
FFFFFF2000000120599B943DFFFFFF20000001300B9B8464
FFFFFF2000000127F39B69E7FFFFFF200000011DEE9B5A9D
FFFFFF20000001223A9B1A95FFFFFF2000000125D29B4AF3
FFFFFF2000000124499B8DD8FFFFFF200000012CA19B8FDE
FFFFFF2000000135BE9B9A0BFFFFFF200000012FBA9B5C50
FFFFFF2000000127479B504FFFFFFF200000012A129B74B7
FFFFFF200000012FCE9B67E1FFFFFF20000001263F9B2C8B
FFFFFF2000000120CF9B5189FFFFFF2000000123D99B737A
FFFFFF200000011EB59B4809FFFFFF200000012E3D9B6428
FFFFFF200000012F1B9B6B7EFFFFFF200000012A859B9021
FFFFFF2000000129299B7935FFFFFF200000012D7F9B7357
FFFFFF2000000125B79B4116FFFFFF2000000128249B5342
FFFFFF20000001251F9B6A84FFFFFF20000001262C9B55AC
FFFFFF2000000126729B527FFFFFFF200000011D119B6599
FFFFFF2000000120B19B7237FFFFFF20000001201A9B42D3
FFFFFF2000000121889B57D7FFFFFF2000000129AF9B9ADD
FFFFFF2000000120DB9B8CE2FFFFFF20000001257B9BA1E2
FFFFFF200000011BF79B3BC8FFFFFF20000001185B9B1D8A
FFFFFF200000012DE39B98E7FFFFFF200000011CE19B3B9A
FFFFFF200000011BEA9B520FFFFFFF2000000126669B830D
FFFFFF20000001222F9B7920FFFFFF20000001181C9B48D2
FFFFFF200000012A339B6D76FFFFFF200000012A089B5E8C
FFFFFF2000000124259B81D7FFFFFF2000000122119B8883
FFFFFF200000011E329B8B7EFFFFFF2000000125629BB18C
FFFFFF2000000125159B9B7EFFFFFF2000000120CB9B6F94
FFFFFF200000011E0A9B4927FFFFFF2000000121979B6467
FFFFFF200000011BB89B540FFFFFFF2000000125679B7E8E
FFFFFF2000000117859B1FCBFFFFFF2000000119F99B4DB7
FFFFFF2000000124BE9B9B44FFFFFF2000000119C79B618D
FFFFFF20000001237D9B5497FFFFFF2000000116F39B3B9D
FFFFFF200000011ECB9B3B73FFFFFF2000000123469B406B
FFFFFF200000011B899B3426FFFFFF200000011ACD9B26FD
FFFFFF2000000126369B501AFFFFFF20000001206F9B3E10
FFFFFF2000000117D19B544BFFFFFF200000011F769B7E49
FFFFFF200000011F3E9B8B16FFFFFF200000011EC79B94F3
FFFFFF2000000129079B797EFFFFFF2000000116489B693C
FFFFFF20000001224E9B5C4CFFFFFF2000000127709B77AF
FFFFFF2000000113B29B4E85FFFFFF20000001122E9B5660
FFFFFF2000000120859B59C3FFFFFF2000000119169B415E
FFFFFF200000010DF19B2BB5FFFFFF2000000116379B352B
FFFFFF200000010B849B555FFFFFFF2000000114869AD3A8
FFFFFF20000001170B9B290FFFFFFF2000000116E79B15BF
FFFFFF20000001141D9AF799FFFFFF20000001147A9B16BA
FFFFFF200000011AB89B463CFFFFFF2000000118DF9B3B4E
FFFFFF200000011C5F9B7336FFFFFF200000011B5B9B7700
FFFFFF20000001178D9B4430FFFFFF200000011B4F9B3BE5
FFFFFF2000000118E29B56CAFFFFFF20000001111D9B49FD
FFFFFF2000000124299B68BBFFFFFF200000011AB49B5A29
FFFFFF200000011F909B2FC7FFFFFF2000000117829B2833
FFFFFF2000000116779B2991FFFFFF200000011F7D9B48A3
FFFFFF200000011D7A9B307DFFFFFF20000001236A9B2F2D
FFFFFF200000011D359B3412FFFFFF20000001218E9B42FD
FFFFFF2000000120279B4F5AFFFFFF2000000120779B088E
FFFFFF200000011EFD9B369EFFFFFF200000011ACC9B3F3B
FFFFFF2000000129619B5DCAFFFFFF20000001267E9B41D0
FFFFFF2000000122BD9B8A32FFFFFF20000001139E9B455D
FFFFFF2000000113C59B5653FFFFFF2000000122A69B60D1
FFFFFF2000000114C69B3E51FFFFFF2000000119209B7383
FFFFFF200000010F939B6978FFFFFF2000000110389B60C1
FFFFFF2000000118439B573BFFFFFF200000010BD59B60A1
FFFFFF2000000118739B7167FFFFFF2000000113B09B3579
FFFFFF2000000101059B3522FFFFFF200000010CE39B628D
FFFFFF200000010A509B2D89FFFFFF200000010C9E9B4250
FFFFFF2000000107149B39E6FFFFFF2000000108689B1475
FFFFFF200000010CC89B5338FFFFFF2000000115B59B0F1C
FFFFFF2000000110E29B44D8FFFFFF2000000109ED9B0CAC
FFFFFF20000001100D9AC75EFFFFFF200000010F8E9B1F8B
FFFFFF2000000109B99B044EFFFFFF2000000107FC9B334F
FFFFFF200000010B2E9B11B6FFFFFF2000000105C49B123F
FFFFFF200000010BD39B42E6FFFFFF2000000104C59B3BCF
FFFFFF20000001149E9BAA4AFFFFFF200000010ADB9B3DA1
FFFFFF20000001183C9B74F2FFFFFF2000000116839B3A63
FFFFFF200000011A879B447AFFFFFF2000000118EC9B624C
FFFFFF2000000110979B30A6FFFFFF20000001212D9B5A74
FFFFFF200000010FC39B368FFFFFFF200000011DE09B2833
FFFFFF2000000123009B41CCFFFFFF20000001183C9B4487
FFFFFF200000010D749B36DAFFFFFF200000011FD89B3851
FFFFFF2000000118269B5017FFFFFF2000000107AB9B1FE2
FFFFFF200000010D229B2C20FFFFFF200000010EA29B1FD7
FFFFFF200000010BD09B509DFFFFFF2000000117449B4F94
FFFFFF200000011B409B7AA1FFFFFF2000000110069B74E0
FFFFFF200000011DF69B6ED8FFFFFF20000001138F9B5584
FFFFFF200000010B669BA2AAFFFFFF200000011D049BA645
FFFFFF20000001167D9B8680FFFFFF200000010FF39B9410
FFFFFF200000011AF99B7451FFFFFF2000000113679B73E0
FFFFFF200000010DF19B9821FFFFFF2000000114C79B87A9
FFFFFF2000000105789B77FDFFFFFF2000000106099B71E6
FFFFFF200000010D629B5918FFFFFF200000010CDA9B5399
FFFFFF2000000111789B49CBFFFFFF2000000116C59B2EB8
FFFFFF2000000115569B2809FFFFFF20000001143C9B33FD
FFFFFF2000000110F19B5FDEFFFFFF2000000107559B8653
FFFFFF200000010CD09B5AFFFFFFFF200000010D819B77FC
FFFFFF20000001194F9BAC65FFFFFF200000010C919BAC92
FFFFFF20000001169A9BB45FFFFFFF200000010F2F9B99E0
FFFFFF2000000116F19B7446FFFFFF200000010C4E9B4E84
FFFFFF2000000106F99B4D84FFFFFF2000000105D99B6CA4
FFFFFF20000001034B9B9070FFFFFF2000000109F49B86C3
FFFFFF2000000109B09BACDFFFFFFF200000010E1B9B9414
FFFFFF200000010A049BBD34FFFFFF200000010B929BC1E7
FFFFFF2000000109D59BB870FFFFFF2000000109109B9ADD
FFFFFF200000010C949BD94AFFFFFF200000010C1B9C30D2
FFFFFF200000010AF29C488FFFFFFF200000010AB99C57A4
FFFFFF20000000FFB49C3BC0FFFFFF20000000FF189C08A6
FFFFFF20000000FC579C0238FFFFFF20000000FD2F9BA7EB
FFFFFF2000000102D89BD092FFFFFF20000001055E9BBFE5
FFFFFF2000000108359BBB26FFFFFF2000000103319BB226
FFFFFF2000000106959BA85FFFFFFF20000001061A9B9BB3
FFFFFF2000000107A99BA472FFFFFF200000010D919BA943
FFFFFF200000010F549BA7DEFFFFFF200000010E7A9BA4C3
FFFFFF200000010F8C9BA327FFFFFF20000001162E9B9226
FFFFFF2000000117FA9B7F42FFFFFF2000000110C59B88D3
FFFFFF200000010CE09B9FCDFFFFFF2000000114479BA56B
FFFFFF200000010B369BC522FFFFFF20000001179C9BE5EC
FFFFFF200000011A619BC215FFFFFF2000000116EA9BD51E
FFFFFF200000010B2D9BA560FFFFFF2000000119AD9BCDF2
FFFFFF2000000107D39BC282FFFFFF200000010E1E9B9A1A
FFFFFF20000001068D9B9CC3FFFFFF2000000118F39BA059
FFFFFF2000000116929BA0F3FFFFFF2000000109C69BA612
FFFFFF2000000109CF9B9E4EFFFFFF2000000110419BA186
FFFFFF200000010EBD9B9498FFFFFF2000000112139B9913
FFFFFF200000010D099BB761FFFFFF200000010A099BE1E6
FFFFFF2000000102B09C1637FFFFFF200000010CA09C3643
FFFFFF20000001126A9C078EFFFFFF20000000FFF19C006C
FFFFFF200000011ABA9C13FEFFFFFF2000000117469BF936
FFFFFF200000010B799BF5C4FFFFFF2000000112219C173E
FFFFFF20000001041F9C5229FFFFFF20000001047F9CC991
FFFFFF2000000100F29CF9B3FFFFFF2000000109829CDF6B
FFFFFF20000000FF629CCA6DFFFFFF2000000108019CBC06
FFFFFF2000000104BB9C9EF7FFFFFF2000000106409C8F3B
FFFFFF20000000FFDE9C7D30FFFFFF2000000103AC9C6B11
FFFFFF2000000106A69C5A47FFFFFF2000000104F49C4884
FFFFFF20000000FE5E9C35A8FFFFFF20000000FB0D9C7FFC
FFFFFF20000000FAF09C792BFFFFFF20000000FF159C81DC
FFFFFF20000001009F9C74ACFFFFFF20000000F9E69CFBAA
FFFFFF20000000F6F39CE6A5FFFFFF20000000F6D69CB15F
FFFFFF20000000FA5F9C792BFFFFFF20000000FC1C9CA9F4
FFFFFF20000000FCDD9C9A7FFFFFFF20000001021C9C7162
FFFFFF20000000FD8A9C6EDEFFFFFF2000000100B29C52A4
FFFFFF20000001001D9C4592FFFFFF20000000F8E19C26DE
FFFFFF20000000F99F9C1409FFFFFF20000000FDCC9C22B7
FFFFFF20000000FF939BFDD5FFFFFF20000000FC9E9C2395
FFFFFF20000000F1B39CA782FFFFFF20000000FDEA9C6312
FFFFFF20000000F66A9C6947FFFFFF20000000EDCB9D0DD9
FFFFFF20000000F6059CF4FCFFFFFF20000000F1269CD2CD
FFFFFF20000000F3D29D07CBFFFFFF20000000ED579D2D5E
FFFFFF20000000F00B9CF9D4FFFFFF20000000F3429CFE4F
FFFFFF20000000F7EB9D063AFFFFFF20000000ECE09CDCFC
FFFFFF20000000F2129CCD37FFFFFF20000000F1939CCF02
FFFFFF20000000F3A09CD159FFFFFF20000000F0AE9CCEBF
FFFFFF20000000F3549CD0C0FFFFFF20000000F5519CB3DD
FFFFFF20000000F5C89CAF9AFFFFFF20000000F8A59CB455
FFFFFF20000000F5049CB25DFFFFFF20000000F51F9CB5F8
FFFFFF20000000FDDC9CA2E9FFFFFF2000000104009C8D82
FFFFFF20000001073A9C91D0FFFFFF2000000107FD9CE31B
FFFFFF20000000FE429CD8B5FFFFFF2000000105239CDB0F
FFFFFF200000010F859CCA47FFFFFF20000001124E9CE2E6
FFFFFF200000010F199CDA19FFFFFF200000010DBA9CE9C1
FFFFFF2000000109AA9CFC67FFFFFF200000010BC39CBE36
FFFFFF2000000100D39CDED9FFFFFF2000000105D69CEE86
FFFFFF200000010F5F9CF9F1FFFFFF200000010DC59D1454
FFFFFF2000000100699D264BFFFFFF20000000FD6C9D22A1
FFFFFF2000000101F39D269AFFFFFF20000000FDF49D178B
FFFFFF20000000FFDE9D16FFFFFFFF20000000FABC9D0BC6
FFFFFF20000000FC979D0B0BFFFFFF20000000FFA49D0B28
FFFFFF20000000FEB79D0B15FFFFFF20000000FE3E9D0B93
FFFFFF20000000F4959D37F0FFFFFF20000000F3999D5701
FFFFFF20000000F9CC9D58F6FFFFFF2000000100239D58BD
FFFFFF20000000FD519D6CD6FFFFFF2000000104209D5A04
FFFFFF20000000F7689D7100FFFFFF20000000F4259DC204
FFFFFF20000000F24C9DF32DFFFFFF20000000FA179E07DC
FFFFFF20000000FAFA9DFFE5FFFFFF20000000EEC29E1E0F
FFFFFF20000000F0D89E1281FFFFFF20000000F2509E1133
FFFFFF20000000F3AE9E04DBFFFFFF20000000F20B9DF8DE
FFFFFF20000000F33D9DE748FFFFFF20000000EDEE9DCAD0
FFFFFF20000000ED529DD39DFFFFFF20000000EDB79DF3D4
FFFFFF20000000E8FE9E3ED8FFFFFF20000000EDCE9E23C6
FFFFFF20000000EEE99E2048FFFFFF20000000EAB79E3D04
FFFFFF20000000EAEF9E48F5FFFFFF20000000E8B49E4A1D
FFFFFF20000000E9B69E4840FFFFFF20000000E63E9E36B4
FFFFFF20000000E7CD9E364FFFFFFF20000000F1059E1EE7
FFFFFF20000000E8619E174DFFFFFF20000000E8D29E0C4E
FFFFFF20000000EAA49E0B68FFFFFF20000000E6769E100F
FFFFFF20000000E4E99E1461FFFFFF20000000E6269E129E
FFFFFF20000000E81B9E1340FFFFFF20000000E9089E1488
FFFFFF20000000E96F9E14D0FFFFFF20000000EB969E1962
FFFFFF20000000EB179E1A28FFFFFF20000000EC509E196A
FFFFFF20000000EB729E1BA0FFFFFF20000000EAE09E2372
FFFFFF20000000EA639E2036FFFFFF20000000EBAA9E25C7
FFFFFF20000000E7039E46CFFFFFFF20000000E27D9E58C9
FFFFFF20000000E3EC9E6111FFFFFF20000000EE119E6151
FFFFFF20000000F5359E584DFFFFFF20000000F6369E5375
FFFFFF20000000F1619E6522FFFFFF20000000F9F19E6C12
FFFFFF20000000F6C29E6AB1FFFFFF20000000ECAB9E5DAE
FFFFFF20000000E3009E7492FFFFFF20000000F7ED9E771B
FFFFFF20000000F4E39E818DFFFFFF20000000E8B39EAC2F
FFFFFF20000000E0889EB74AFFFFFF20000000E23E9EBA7D
FFFFFF20000000E6559EACBFFFFFFF20000000EBC19EA2A4
FFFFFF20000000ECC49E9D06FFFFFF20000000EA4A9E9D23
FFFFFF20000000F0059E9CF5FFFFFF20000000ED409EAFB2
FFFFFF20000000EEF19EA992FFFFFF20000000E4E69ED92A
FFFFFF20000000E3FA9EF4C6FFFFFF20000000EB8F9ED535
FFFFFF20000000E7849EE587FFFFFF20000000E87F9EFD39
FFFFFF20000000EF1B9EEBE5FFFFFF20000000F5E29EE5C6
FFFFFF20000000E9F69EFE83FFFFFF20000000E4959F0654
FFFFFF20000000E8269F0C14FFFFFF20000000E46E9F12D1
FFFFFF20000000E6CE9F1710FFFFFF20000000E1EA9F22C3
FFFFFF20000000E1E99F24F6FFFFFF20000000E1159F2C99
FFFFFF20000000DF1A9F3927FFFFFF20000000E1179F34CC
FFFFFF20000000E1AC9F40F5FFFFFF20000000E35E9F4D96
FFFFFF20000000E2AE9F48A1FFFFFF20000000E0949F55D5
FFFFFF20000000DBFD9F528EFFFFFF20000000DF2E9F5084
FFFFFF20000000DF249F562EFFFFFF20000000E01E9F57D2
FFFFFF20000000DE0E9F6A77FFFFFF20000000DA759F7354
FFFFFF20000000DB309F7965FFFFFF20000000D9E49F98FD
FFFFFF20000000D7BC9FAEF3FFFFFF20000000D83C9FB7C9
FFFFFF20000000D8989FB927FFFFFF20000000D7099FC9B9
FFFFFF20000000D3E19FC95EFFFFFF20000000D6BA9FD5F7
FFFFFF20000000D3029FE3D4FFFFFF20000000D3EA9FEC3F
FFFFFF20000000D3BFA00125FFFFFF20000000D6ABA00064
FFFFFF20000000D6709FF812FFFFFF20000000D7D19FEB54
FFFFFF20000000D65E9FED63FFFFFF20000000DA0C9FF91E
FFFFFF20000000D63A9FF7D0FFFFFF20000000D6B89FF446
FFFFFF20000000D7FB9FF56FFFFFFF20000000CEE2A02ABA
FFFFFF20000000CE8DA03D4EFFFFFF20000000D23AA04F9B
FFFFFF20000000D1F1A05411FFFFFF20000000D243A04C97
FFFFFF20000000D38AA00363FFFFFF20000000D79E9FF688
FFFFFF20000000D3D1A007E0FFFFFF20000000D8A4A008A0
FFFFFF20000000D453A01A6EFFFFFF20000000D6EAA0161D
FFFFFF20000000D310A01B49FFFFFF20000000D5E7A01559
FFFFFF20000000D6F0A0561FFFFFFF20000000D6F8A0669B
FFFFFF20000000D420A04319FFFFFF20000000D7B2A0201D
FFFFFF20000000DD45A02F4EFFFFFF20000000DC0CA05897
FFFFFF20000000DF5EA06DBCFFFFFF20000000D6FFA07ABE
FFFFFF20000000DDA3A06877FFFFFF20000000DB21A06027
FFFFFF20000000DE76A04003FFFFFF20000000E167A03743
FFFFFF20000000E37BA040A5FFFFFF20000000DD46A0442D
FFFFFF20000000E149A042FFFFFFFF20000000DD2CA05A5A
FFFFFF20000000DEF5A05AC5FFFFFF20000000DE23A04108
FFFFFF20000000DBB5A05D62FFFFFF20000000E0E1A05940
FFFFFF20000000EA7AA0335BFFFFFF20000000E6C2A04788
FFFFFF20000000E050A05EDEFFFFFF20000000E0FFA0475F
FFFFFF20000000DBC3A0395DFFFFFF20000000D730A060AE
FFFFFF20000000D910A06DB9FFFFFF20000000D693A0716B
FFFFFF20000000DA86A09FC4FFFFFF20000000D073A0D247
FFFFFF20000000D3E5A0CA5BFFFFFF20000000D4FBA0B9CB
FFFFFF20000000D5E7A0BD63FFFFFF20000000D41BA0CD9D
FFFFFF20000000D80BA0BE46FFFFFF20000000D75BA0CBAD
FFFFFF20000000D5B6A0DA33FFFFFF20000000D12FA1034E
FFFFFF20000000D16AA1064DFFFFFF20000000D05FA11736
FFFFFF20000000D061A0EA61FFFFFF20000000D4DAA0A1EB
FFFFFF20000000D5D2A092BDFFFFFF20000000E142A0926D
FFFFFF20000000D8DDA0DB75FFFFFF20000000D911A101B1
FFFFFF20000000D888A12297FFFFFF20000000D474A11162
FFFFFF20000000D843A0E105FFFFFF20000000E0B8A06C0D
FFFFFF20000000E689A04A1EFFFFFF20000000E60DA06146
FFFFFF20000000E253A08141FFFFFF20000000E645A078EB
FFFFFF20000000E48AA0978BFFFFFF20000000E04EA0AA61
FFFFFF20000000DFCFA0C70BFFFFFF20000000DB4DA0DED8
FFFFFF20000000D735A11529FFFFFF20000000D7DAA13C72
FFFFFF20000000D59DA12512FFFFFF20000000DC18A0C04D
FFFFFF20000000D952A0EEC2FFFFFF20000000DBCBA0C619
FFFFFF20000000DFF3A0D1FAFFFFFF20000000DD34A0B16A
FFFFFF20000000E244A09BFAFFFFFF20000000DB3FA0B3A2
FFFFFF20000000DB97A0CE4EFFFFFF20000000D830A10A84
FFFFFF20000000D8B2A1138FFFFFFF20000000D848A1180C
FFFFFF20000000DE87A13E64FFFFFF20000000D534A142EB
FFFFFF20000000D71CA1647FFFFFFF20000000D589A172DC
FFFFFF20000000D8A1A17730FFFFFF20000000D2D1A14CA2
FFFFFF20000000D933A14F3AFFFFFF20000000D5E9A15357
FFFFFF20000000D8BDA127A9FFFFFF20000000D830A142D4
FFFFFF20000000D8C0A1307AFFFFFF20000000DBC1A12E6A
FFFFFF20000000DAC5A140B4FFFFFF20000000D94DA13023
FFFFFF20000000D6BFA148E7FFFFFF20000000DA00A152B4
FFFFFF20000000DAC1A1401AFFFFFF20000000DABDA1382F
FFFFFF20000000DC75A15334FFFFFF20000000D8B0A14B71
FFFFFF20000000DD7EA11C05FFFFFF20000000DCC5A10DB7
FFFFFF20000000E2D6A0D97AFFFFFF20000000E0D3A0FE52
FFFFFF20000000E053A12FBFFFFFFF20000000D499A15163
FFFFFF20000000D6F2A1447DFFFFFF20000000DC8BA10E93
FFFFFF20000000E2FEA131FAFFFFFF20000000DC7DA14016
FFFFFF20000000DC4AA132E2FFFFFF20000000E261A0F6E6
FFFFFF20000000DA2CA133AAFFFFFF20000000DD1CA139FB
FFFFFF20000000DDF3A14BE5FFFFFF20000000DB15A15FCD
FFFFFF20000000DA9AA1852DFFFFFF20000000DD04A178AD
FFFFFF20000000DBE9A1871DFFFFFF20000000DEBAA16A04
FFFFFF20000000DE6CA1698DFFFFFF20000000E59AA110C2
FFFFFF20000000E105A11364FFFFFF20000000E57EA0EA37
FFFFFF20000000DE2EA12348FFFFFF20000000DA92A12BA6
FFFFFF20000000DEB7A1290BFFFFFF20000000DB00A132D8
FFFFFF20000000D918A1754AFFFFFF20000000D680A186CA
FFFFFF20000000D7FCA1A0D6FFFFFF20000000D3ADA1B240
FFFFFF20000000CE11A1F25EFFFFFF20000000CEAFA1ECE3
FFFFFF20000000CFE1A1ED42FFFFFF20000000CFFBA1E094
FFFFFF20000000D171A1E0A7FFFFFF20000000D126A1D533
FFFFFF20000000D370A1C7E0FFFFFF20000000D2D6A1CD3A
FFFFFF20000000D0C1A1D443FFFFFF20000000D231A1D06A
FFFFFF20000000D15AA1A2D8FFFFFF20000000D1F2A1C91F
FFFFFF20000000D83EA15D25FFFFFF20000000D72CA18AB2
FFFFFF20000000D6B9A19CCBFFFFFF20000000D453A19C61
FFFFFF20000000D751A1C06EFFFFFF20000000D059A1DA74
FFFFFF20000000D338A1F1DDFFFFFF20000000D0EAA1F06A
FFFFFF20000000D0FAA1F03BFFFFFF20000000D27FA1D928
FFFFFF20000000D411A1C4D6FFFFFF20000000D793A1DC1F
FFFFFF20000000D3FDA1CA86FFFFFF20000000D8F9A1B615
FFFFFF20000000D74CA1AC86FFFFFF20000000D8ADA1B347
FFFFFF20000000DC03A1A61BFFFFFF20000000D9A8A19254
FFFFFF20000000D819A1B967FFFFFF20000000D60DA1C339
FFFFFF20000000D7BCA1C8CFFFFFFF20000000DAC7A1CDE3
FFFFFF20000000D8D2A1CA2AFFFFFF20000000D7CBA1C53D
FFFFFF20000000D836A1C380FFFFFF20000000D926A1C928
FFFFFF20000000D8A9A1C44BFFFFFF20000000D46CA1D896
FFFFFF20000000DB59A1DC90FFFFFF20000000D889A1E11C
FFFFFF20000000DBA2A1DDD4FFFFFF20000000E059A1D63B
FFFFFF20000000E3BCA1CC00FFFFFF20000000E176A1DB8C
FFFFFF20000000EA2CA1D6EBFFFFFF20000000E419A1DC6B
FFFFFF20000000E303A1D14CFFFFFF20000000DD58A1DEB5
FFFFFF20000000E04DA1DE66FFFFFF20000000DD9EA1DF5F
FFFFFF20000000D94FA1CF95FFFFFF20000000DC50A1B063
FFFFFF20000000DE26A1A530FFFFFF20000000E378A1C781
FFFFFF20000000E35CA1DC98FFFFFF20000000DAADA1FDE4
FFFFFF20000000E02BA1F82DFFFFFF20000000E33DA1F915
FFFFFF20000000DF7AA1E609FFFFFF20000000EC4EA1F079
FFFFFF20000000E5F9A1DEBEFFFFFF20000000DFFCA1C803
FFFFFF20000000E2C7A1E9BFFFFFFF20000000E105A1F24C
FFFFFF20000000E5F3A1F167FFFFFF20000000E4A9A1EF91
FFFFFF20000000E9CDA1ECDFFFFFFF20000000DF14A1F82D
FFFFFF20000000E63FA1F0F8FFFFFF20000000E86AA1F0E5
FFFFFF20000000EC83A1EB47FFFFFF20000000E4F8A1D9E4
FFFFFF20000000EA74A1C42CFFFFFF20000000EEFBA1AF2C
FFFFFF20000000E2F3A1CAB0FFFFFF20000000E90AA1CFFC
FFFFFF20000000EDC6A1C673FFFFFF20000000E7C5A1CD36
FFFFFF20000000EF9EA1BCCEFFFFFF20000000E376A1BEA6
FFFFFF20000000E7D3A1B086FFFFFF20000000F0DFA1B18F
FFFFFF20000000EA92A1C345FFFFFF20000000EC85A1BC4F
FFFFFF20000000F698A1D012FFFFFF20000000E705A1DBE3
FFFFFF20000000EF9DA1DD15FFFFFF20000000E3C2A1D25C
FFFFFF20000000EA18A1C623FFFFFF20000000E3D6A1D910
FFFFFF20000000E574A1E0F4FFFFFF20000000E171A1F4B4
FFFFFF20000000E21AA1F13FFFFFFF20000000ECA1A1EF64
FFFFFF20000000E698A1F7A2FFFFFF20000000E591A1F82F
FFFFFF20000000EB15A1EDABFFFFFF20000000E971A1EA3C
FFFFFF20000000EA05A1EE6BFFFFFF20000000EFB5A1EFA2
FFFFFF20000000EE9AA1EA4AFFFFFF20000000EAC3A1EDC8
FFFFFF20000000FC2DA1CFD9FFFFFF200000010239A1C967
FFFFFF20000000FEBEA1D965FFFFFF20000000F221A1D7CB
FFFFFF20000000EBEBA1EA10FFFFFF20000000F0BDA1E3FB
FFFFFF20000000F3DEA1E7F2FFFFFF20000000F736A1E7D9
FFFFFF20000000FDABA1E884FFFFFF20000000FAA4A1E7E6
FFFFFF20000000FBC6A1E289FFFFFF20000000FAEEA1E340
FFFFFF20000000FCA7A1E147FFFFFF20000000FB44A1E3F8
FFFFFF20000000FB85A1E6D7FFFFFF20000000FA1BA1E821
FFFFFF20000000FD12A1E6A5FFFFFF20000000FD56A1D3B7
FFFFFF20000000FB55A1D3ECFFFFFF20000000F860A1DA4F
FFFFFF20000000FEC5A1DD5EFFFFFF20000000FB13A1E6E1
FFFFFF200000011F2DA1DD09FFFFFF200000012700A1D782
FFFFFF200000025187A17469FFFFFF20000004DF9DA11CAC
FFFFFF20000004A6CCA1318AFFFFFF200000095DEDA0EB80
FFFFFF2000001103E4A09F8AFFFFFF2000000713C8A0FC00
FFFFFF2000000C0186A0AC2FFFFFFF2000000DFE77A0AF65
FFFFFF2000001132B2A0968EFFFFFF20000017DEFFA0471D
FFFFFF2000001440B8A05A30FFFFFF20000009205AA0577F
FFFFFF200000086CB8A09F21FFFFFF2000000EB049A01557
FFFFFF2000001DACC89FED86FFFFFF2000001C986F9F980C
FFFFFF2000001C50D49FC25BFFFFFF2000002288249F8EF0
FFFFFF20000024ED4A9FA390FFFFFF2000002269689F5C25
FFFFFF200000279BEA9F41A3FFFFFF2000001B5F849FF0D5
FFFFFF2000002A03E89F6117FFFFFF2000002FB5539F2A58
FFFFFF200000289DDF9F9BF1FFFFFF20000021615D9FE814
FFFFFF2000002962409F9D5DFFFFFF2000002649799FBB80
FFFFFF2000002B42D69F6971FFFFFF20000033E32E9EE4A7
FFFFFF20000024589E9F700CFFFFFF20000027E4A49F4466
FFFFFF2000002F43539F132FFFFFFF20000034601D9EDF10
FFFFFF200000344FA49EE006FFFFFF2000003596769EB5BA
FFFFFF200000260EE09F3429FFFFFF2000002DAB369F153F
FFFFFF2000002DBEB49F58C8FFFFFF2000003514319ED062
FFFFFF200000228CB79F942FFFFFFF200000209F2C9FC919
FFFFFF2000003459E49EF120FFFFFF2000002F169B9F30EE
FFFFFF2000002CD0169F672FFFFFFF20000030288A9F1405
FFFFFF2000002A9B399F7B3FFFFFFF20000029B2F19F7515
FFFFFF2000003044AC9F1A92FFFFFF2000002BADE59F7CB5
FFFFFF200000279C159FBC05FFFFFF2000002DD9F79F5688
FFFFFF200000329BB69EE307FFFFFF20000031BAB19F0AD8
FFFFFF20000022A6C4A01D1EFFFFFF200000358E569EEAAB
FFFFFF2000003260249F3252FFFFFF2000002F3C0F9F1521
FFFFFF2000003240F79F10A0FFFFFF20000033C2229EF4BB
FFFFFF20000034B6D59EDDDCFFFFFF2000003506E89ECA32
FFFFFF20000031F8109F1001FFFFFF2000003420569ED618
FFFFFF20000033DD409EE9D6FFFFFF20000036B86E9EC11B
FFFFFF2000003672749EBA66FFFFFF200000374C049EB471
FFFFFF20000036D7129EB8A2FFFFFF20000038ADA79EA06D
FFFFFF2000003A241E9E8BA3FFFFFF2000003902429E964B
FFFFFF20000039DBAD9E8E56FFFFFF20000038DF209E8AD1
FFFFFF2000003B81339E7FA7FFFFFF2000003B49799E7F0E
FFFFFF2000003B57599E7D6BFFFFFF2000003B33FF9E78D8
FFFFFF2000003B3B0F9E7DADFFFFFF2000003861F79EACE6
FFFFFF2000004156B99E2613FFFFFF20000040535C9E2C0E
FFFFFF2000003D0D929E4C70FFFFFF200000414C659E128C
FFFFFF2000004178079E1CBEFFFFFF200000425E5F9E1167
FFFFFF200000426ED49E1662FFFFFF2000004357C69E0E24
FFFFFF20000046B6D59DC76CFFFFFF20000046F1C29DBE5B
FFFFFF20000043DE729E25ADFFFFFF200000411B439E2CB5
FFFFFF20000045AA629DD0CBFFFFFF200000422A969E02FF
FFFFFF200000458A529DC9F7FFFFFF2000004438DC9DFB96
FFFFFF20000041A8BE9E2CABFFFFFF20000043A9D79DF93F
FFFFFF2000004043C29E18CCFFFFFF20000042B4979E138D
FFFFFF20000040305C9E35B1FFFFFF2000003FBD939E4A52
FFFFFF2000004316749E1CCBFFFFFF20000042624B9E1247
FFFFFF20000044151A9DC2F1FFFFFF20000045D8249DC49D
FFFFFF20000045CA129DCE1EFFFFFF2000004459BB9DE6A8
FFFFFF20000042CA339DF625FFFFFF20000041AB7D9E1173
FFFFFF20000046C8289DBFB7FFFFFF20000043D92E9DF085
FFFFFF20000043CB809DF767FFFFFF20000046287C9DBB9E
FFFFFF20000044F6D19DDABDFFFFFF2000004491279DD714
FFFFFF200000458B929DCD38FFFFFF2000003E6F5D9DE120
FFFFFF2000004317D39DEBCAFFFFFF20000044C0609DD0C1
FFFFFF20000044F3929DCE6FFFFFFF2000004513A59DC37F
FFFFFF200000438B999DEA14FFFFFF20000045642A9DCD53
FFFFFF20000043FA269DE6B8FFFFFF2000004439659DE13B
FFFFFF200000453C9F9DD500FFFFFF2000004525F89DD42D
FFFFFF200000459F8A9DC468FFFFFF2000004492439DCF89
FFFFFF2000004439F69DE440FFFFFF2000004564C09DCEB0
FFFFFF20000044887F9DCFABFFFFFF2000004521F79DD203
FFFFFF2000004318609DFDD4FFFFFF200000449CCD9DDC16
FFFFFF200000461F299DB54CFFFFFF20000044FECE9DD52D
FFFFFF2000004510209DD02BFFFFFF200000454FCA9DC446
FFFFFF20000044188B9DDB87FFFFFF2000004561099DC05B
FFFFFF2000004579319DBEE7FFFFFF200000437BB39DE5F2
FFFFFF20000044AD569DDE3FFFFFFF20000045414E9DC15B
FFFFFF20000044BDDA9DC7D9FFFFFF20000045F8979DAE10
FFFFFF20000044E3DF9DB99AFFFFFF200000442C7D9DDB99
FFFFFF200000436E709DDFBDFFFFFF2000004481519DCDD8
FFFFFF20000045134B9DC8EBFFFFFF20000044507E9DD500
FFFFFF2000004541BF9DC0AEFFFFFF20000044D8A19DC34F
FFFFFF20000045956C9DB86AFFFFFF2000004515859DC0CF
FFFFFF20000044DB049DC941FFFFFF2000004486DC9DD020
FFFFFF200000440E129DDA0DFFFFFF200000442C609DD2C2
FFFFFF20000043808B9DE37AFFFFFF20000042ACB19E00D5
FFFFFF20000043DCCD9DE125FFFFFF20000043AB069DE12A
FFFFFF200000444BD39DD5DEFFFFFF2000004278749DFB63
FFFFFF20000044E7589DD872FFFFFF2000004576179DCD39
FFFFFF2000004477629DE04EFFFFFF20000043BD339DE763
FFFFFF200000447F709DDD6EFFFFFF200000444C329DE275
FFFFFF200000442D719DE44CFFFFFF2000004401089DE40A
FFFFFF200000448D969DE0DFFFFFFF200000446F049DDF62
FFFFFF200000440E4D9DE938FFFFFF2000004478499DE1BA
FFFFFF200000446E829DE09EFFFFFF2000004478AD9DDEA4
FFFFFF200000443D379DE2E9FFFFFF20000043C7019DF699
